:1000000000000220010300002D0300002D0300006A
:100010002D0300002D0300002D0300002D03000020
:100020002D0300002D0300002D0300002D03000010
:100030002D0300002C0300002D0300002D03000001
:100040002D0300002D030000593900002D0300008E
:100050002D0300002D0300002D0300002D030000E0
:100060002D0300002D0300002D0300002D030000D0
:100070002D0300002D0300002D0300002D030000C0
:100080002D0300002D0300002D0300002D030000B0
:10009000D93A00002D0300002D0300002D030000BD
:1000A0002D0300002D0300002D0300002D03000090
:1000B0002D0300002D0300002D0300002D03000080
:1000C0002D0300002D0300002D0300002D03000070
:1000D0002D0300002D0300002D03000010B5054C7A
:1000E000237833B9044B13B10448AFF300800123E4
:1000F000237010BD3C010020000000003C400000C7
:1001000008B5034B1BB103490348AFF3008008BD9A
:1001100000000000400100203C400000154B002B77
:1001200008BF134B9D46A3F5803A00218B460F462E
:100130001348144A121A03F07BFD0F4B002B00D01A
:1001400098470E4B002B00D0984700200021040058
:100150000D000D48002802D00C48AFF3008003F0DA
:1001600043FD2000290002F0D1FA03F029FD00BF71
:100170000000080000000220000000000000000055
:100180003C01002078010020000000000000000079
:1001900080B582B000AF0121104801F093F8012131
:1001A0000F4801F08FF800237B600FE00D4A7B6859
:1001B00012F833000B4A7B68DB00134459680023B4
:1001C000042201F0B1FC7B6801337B607B68012B6A
:1001D000ECDD002318460837BD4680BD4081040091
:1001E00000D20400C83D000080B582B000AF3A4B99
:1001F0005B6C394A43F400535364384BD3F82031D5
:10020000364A43F00403C2F82031344BD3F820318E
:10021000324A23F44073C2F82031304BD3F8B8305F
:100220002E4A23F47063C2F8B8302C4BD3F8B830A0
:100230002A4A43F48063C2F8B830274B10221A626E
:1002400000BF254BDB6A03F02003002BF9D0244BC1
:100250001B68234A43F001031360214BDB68204AEB
:1002600043F08073D3601F4B1F4A1A601F4801F090
:100270008DF8034603F5D52303F2FC437B607B68CE
:10028000DB081B4AA2FB03239B0A3B60194A3B681D
:10029000013B1361174B0222C3F8F020154B4FF4BA
:1002A0008072C3F804234FF06043134AC3F8B02FA1
:1002B0004FF06043114AC3F8802E4FF06043D3F8EB
:1002C000003E4FF0604243F00103C2F8003E0123BC
:1002D00018460837BD4680BD00800C4000600040D5
:1002E000F0ED00E0001000E0FF13014006000E00FA
:1002F00017916502000004E055CEACC5090001006D
:10030000064880470649074A074B9A42BEBF51F844
:10031000040B42F8040BF8E7FFF700FFA504000008
:1003200048400000000000203C010020FEE700BF24
:1003300080B400AF034BDB6C1B0EDBB21846BD462E
:1003400080BC7047B081E00F80B582B000AF00F094
:100350001FF87860074B5B6803F00F037A6822FA96
:1003600003F37B60044A7B6813607B681846083798
:10037000BD4680BD00800C400800002080B400AF66
:10038000024B1846BD4680BC704700BF006CDC02C3
:1003900080B582B000AF334BDB6A03F47053B3F522
:1003A000805F0AD0B3F5005F03D0B3F5006F08D0CB
:1003B0000BE02D4B1B687B6047E04FF400437B60F4
:1003C00043E02A4B1B687B603FE0264BDB6803F46D
:1003D000E063B3F5007F1BD0B3F5007F05D8002B99
:1003E00024D0B3F5807F16D02BE0B3F5806F09D011
:1003F000B3F5A06F03D0B3F5407F06D021E01C4BCE
:100400007B6021E01B4B7B601EE01B4B7B601BE095
:100410001A4B7B6018E0FFF78BFF0346122B02D9C3
:10042000174B7B6010E0174B7B600DE0FFF780FF00
:100430000346122B02D9144B7B6005E0134B7B6003
:1004400002E000237B6000BF00BF064B1B689B0BD4
:1004500003F0070301337A68B2FBF3F31846083759
:10046000BD4680BD00800C4004000020000000203C
:10047000003FAB01406F4001809FD500C0D8A7006E
:1004800040B56400C0CF6A00804F120040420F00A8
:1004900080B400AF024B1B681846BD4680BC704755
:1004A0000000002080B400AF034B044A9A6000BFF4
:1004B000BD4680BC704700BF00ED00E000000000BA
:1004C00080B400AF4FF400431846BD4680BC70476F
:1004D00080B400AF4FF47A731846BD4680BC7047B5
:1004E00080B400AF024B1B681846BD4680BC704705
:1004F0000400002080B483B000AF0346FB71FB7999
:10050000002B03D0054B01221A6602E0034B0022A8
:100510001A6600BF0C37BD4680BC704700A008407B
:1005200080B483B000AF786000BF054B5A6E7B6823
:100530001340002BF9D100BF0C37BD4680BC70477B
:1005400000A0084080B483B000AF7860054B9A6A81
:100550007B68DB43034913408B6200BF0C37BD4609
:1005600080BC704700A0084080B500AF0022284939
:10057000002001F0F9FC00222549012001F0F4FCE3
:1005800000222349022001F0EFFC00222049032031
:1005900001F0EAFC00221E49042001F0E5FC0022E3
:1005A0001B49052001F0E0FC00221949062001F05A
:1005B000DBFC00221649072001F0D6FC0022FF21B7
:1005C000002001F08FFD0022FF21012001F08AFDB3
:1005D0000022FF21022001F085FD0022FF210320DF
:1005E00001F080FD0022FF21042001F07BFD0022AC
:1005F000FF21052001F076FD0022FF21062001F0F9
:1006000071FD0022FF21072001F06CFD00BF80BDBD
:1006100000F00FF080B582B000AF0346FB710121FE
:10062000244800F04FFE0321234801F05DF84021EB
:10063000224800F015FD012001F0A2F90121204817
:1006400000F040FE4FF0FF30FFF77CFF1D4801F047
:1006500029FB0121082001F083FB0121102001F07A
:100660007FFB0121802001F07BFB01214FF4807092
:1006700001F076FB01214FF4007001F071FBFB7972
:10068000002B0DD04FF4402001F0EAFD4FF48030F4
:1006900001F044FB0C4BDB6F0B4A43F00803D367BC
:1006A000FFF762FF4FF0FF30FFF73AFF00BF083758
:1006B000BD4680BDD0433E0002001E0080002A00DF
:1006C00000362C00FC3F000000800C4080B58AB052
:1006D00000AF78607B6842F20E72934202DD42F214
:1006E0000F737B607B6813F57A7F01DC3D4B7B6089
:1006F0007B68002B06DA786803F05EFA78600123E5
:10070000BB6101E00023BB614FF0FF30FFF708FF42
:100710000120FFF7EFFE00F06DF80123FB610023DD
:100720003B6254E07A68FB6992FBF3F22E4B83FB49
:1007300002139910D317C91A0B469B000B445B0098
:10074000D11A0B46FB82BB69012B04D13B6A032BF8
:1007500001D11023FB82FB8A244A32F81330BB827A
:1007600000237B6227E022493A6A1346DB009B1A8A
:100770005B00CA187B6A1344CB331B783B611C496E
:100780003A6A1346DB009B1A5B00CA187B6A134463
:10079000C4331B78FB60BA8A7B6A42FA03F303F026
:1007A0000103002B04D001223969F86801F0F8FA3E
:1007B0007B6A01337B627B6A062BD4DDFA691346C0
:1007C0009B0013445B00FB613B6A01333B623B6A65
:1007D000032BA7DD0020FFF78DFE00BF2837BD46A5
:1007E00080BD00BF19FCFFFF67666666D83F00004A
:1007F000D83D000080B500AF00227821012001F033
:1008000071FC00227821022001F06CFC002278218A
:10081000032001F067FC00227821042001F062FC33
:1008200000227821052001F05DFC002278210620BD
:1008300001F058FC00227821072001F053FC00BF92
:1008400080BD000080B584B000AF03463960FB7105
:100850000023FB600023BB60FB790E2B6BD801A249
:1008600052F823F0A1080000AB080000B508000012
:10087000BF080000C9080000D3080000DD08000020
:10088000E7080000F1080000FB080000050900006F
:100890000F09000019090000230900002D090000BC
:1008A0000123FB600C23BB6046E00023FB60202398
:1008B000BB6041E00323FB602723BB603CE00223D5
:1008C000FB600C23BB6037E00023FB601C23BB6094
:1008D00032E00323FB600C23BB602DE00423FB60AC
:1008E0000C23BB6028E00023FB601E23BB6023E0D9
:1008F0000523FB602723BB601EE00023FB6022234F
:10090000BB6019E00023FB602323BB6014E00723D6
:10091000FB600C23BB600FE00523FB600C23BB6076
:100920000AE00623FB600C23BB6005E00723FB60A5
:100930001D23BB6000E000BF3B68002B05D00122F7
:10094000B968F86801F02CFA04E00022B968F86888
:1009500001F026FA00BF1037BD4680BD80B487B0D5
:1009600000AFF860B9607A60FB6803F10473DA00E5
:10097000BB6813449B007B617B697A681A6000BF87
:100980001C37BD4680BC704780B485B000AF78602E
:1009900039607B6803F10473DA003B6813449B0001
:1009A000FB60FB681B6818461437BD4680BC704767
:1009B00080B483B000AF786001227B6802FA03F351
:1009C00018460C37BD4680BC704780B485B000AF78
:1009D00078607B68002B03D07B68B3F5004F00BFC5
:1009E0007B68B3FA83F3DBB2C3F11F03FB60FB68E0
:1009F00018461437BD4680BC7047000080B400AF75
:100A0000034BDB6C1B0EDBB21846BD4680BC704747
:100A1000B081E00F80B400AF034BDB6C1B0CDBB28A
:100A20001846BD4680BC7047B081E00F80B582B0EB
:100A300000AFFFF7EFFF03464A2B04D0792B02D01B
:100A4000482B23D024E0154B1B699BB21B029BB2A1
:100A500003F47C53FB80114B9B691B091B0103F0C2
:100A6000F0039AB2FB881343FB800C4BDB691B0934
:100A700003F00F039AB2FB881343FB80FB88B3F5A6
:100A8000017F01D3064B04E0064B02E0054B00E07A
:100A9000002318460837BD4680BD00BFD0FF0FE0D9
:100AA00000366E010048E80180B584B000AF786080
:100AB0000123FB60FFF7BAFF02467B68934204D82C
:100AC0000023FB600023BB600BE0FFF7AFFF034692
:100AD0005B007A689A4202D80123BB6001E00223DE
:100AE000BB60FA681E210848FFF738FF064B5B68B9
:100AF00023F48072BB681B02034913434B6000BFA1
:100B00001037BD4680BD00BF00800C4080B582B06C
:100B100000AF1E210448FFF737FF78607B68184656
:100B20000837BD4680BD00BF00800C4080B582B054
:100B300000AF214B5B6903F4E063B3F5007F1CD089
:100B4000B3F5007F05D8002B25D0B3F5807F1FD0EB
:100B50002AE0B3F5C06F24D0B3F5E06F1ED0B3F533
:100B6000407F21D1FFF74AFF0346122B02D9134BD6
:100B70007B601CE0124B7B6019E0FFF73FFF0346F0
:100B8000122B02D90F4B7B6011E00F4B7B600EE004
:100B90000E4B7B600BE00E4B7B6008E00D4B7B60E7
:100BA00005E00D4B7B6002E000237B6000BF7B68AB
:100BB00018460837BD4680BD00800C40804F1200AB
:100BC00040420F0040B56400C0CF6A00C0D8A70003
:100BD000809FD500406F4001003FAB0180B582B0DF
:100BE00000AF0D4800F0D2FC0346FB70FB78072BEA
:100BF00005D0092B07D1FFF7CBFB786006E0FFF7A4
:100C000095FF786002E000237B6000BF7B68184698
:100C10000837BD4680BD00BF06000E0080B485B019
:100C200000AF78603960204B5B6803F00703FB601E
:100C3000FB68012B01D9042B02D10023FB7202E0D7
:100C40000123FB7200BF7B68184A934207D9FB7AE5
:100C5000002B01D0052300E00423FB6016E07B6835
:100C6000124A93420BD87B68114A934207D9FB7A08
:100C7000002B01D0032300E00123FB6006E0FB7A98
:100C8000002B01D0022300E00023FB60064B5B68D1
:100C900023F007020449FB6813434B6000BF14377D
:100CA000BD4680BC704700BF00000C400048E80112
:100CB0000024F40080B582B000AF0E4BDB6B002B3C
:100CC00014BF01230023FB710A4B41F67132DA6332
:100CD000FFF754FB034600211846FFF79FFFFB79FF
:100CE000002B02D0034B0022DA6300BF0837BD4659
:100CF00080BD00BF00000C4080B584B000AF7860BC
:100D000039600C4BDB6B002B14BF01230023FB73FA
:100D1000084B41F67132DA6339687868FFF77EFF75
:100D2000FB7B002B02D0034B0022DA6300BF10379D
:100D3000BD4680BD00000C4090B585B000AF786026
:100D40000023BB607B68344A934203D0334A93420A
:100D500000D000E000BF786800F018FC0346FB609C
:100D60007B682D4A934203D02C4A934206D00CE074
:100D70002B4B9B6A03F00303FB6006E0284B9B6A46
:100D80009B0803F00303FB6000BFFB68032B39D80B
:100D900001A252F823F000BFCF0D0000A90D000002
:100DA000B10D0000B90D0000FFF78AFBB8602DE01F
:100DB000FFF796FBB86029E0FFF7C6FA0446FFF795
:100DC000A5FE0346013324FA03F3BB601EE00023B3
:100DD000BB607B68104A934203D07B680F4A934202
:100DE00013D10F4B9A6A7B680B498B4201D11023B8
:100DF00000E0142322FA03F3002B06D0FFF768FB70
:100E0000B86002E00023BB6000E000BFBB6818468A
:100E10001437BD4690BD00BF02001E000300200035
:100E200000800C4080B483B000AF7860094B5B6DEC
:100E300003F00103002B07D100BF064B1A6D7B683E
:100E40001340002BF9D100E000BF0C37BD4680BC39
:100E5000704700BF00800C4080B582B000AF1048E2
:100E600000F094FB0346FB70FB78032B07D0092BA3
:100E700009D0022B0BD1FFF733FB78600AE0FFF7B4
:100E80001FFB786006E0FFF783FA786002E000233A
:100E90007B6000BF7B6818460837BD4680BD00BF39
:100EA0000723260080B400AF00BFBD4680BC70475A
:100EB00080B400AF00BFBD4680BC704790B585B020
:100EC00000AF78607B681B0903F00F03BB60BB6851
:100ED000013B0C2B00F2AE8001A252F823F000BFC0
:100EE000150F00003510000035100000250F000020
:100EF0003510000035100000390F0000670F0000AA
:100F0000F30F000035100000351000003510000010
:100F10004D0F00004B4B1B689B0B03F00703013385
:100F2000FB608AE0474B9B6803F00F03FB60F868A7
:100F3000FFF73EFDF86080E0424B5B6803F00F0373
:100F4000FB60F868FFF734FDF86076E03D4B5B68C6
:100F50001B0A03F00103FB60FB6801331846FFF72F
:100F600027FDF86069E07B68374A934218D0364A1B
:100F7000934203D8354A934207D036E0344A93422D
:100F800019D0344A934226D02FE02E4B9B6E1B097A
:100F900003F00F03FB60F868FFF70AFDF86027E035
:100FA000284B9B6E1B0A03F00F03FB60F868FFF7EA
:100FB000FFFCF8601CE0234B9B6E1B0B03F003044B
:100FC0001020FFF702FD03462344FB60F868FFF79B
:100FD000EFFCF8600CE01B4B9B6E03F00303FB601F
:100FE000F868FFF7E5FCF86002E00123FB6000BF52
:100FF00023E07B68184A934203D0184A93420AD0F0
:1010000014E0104B1B6F03F00303FB60F868FFF75D
:10101000CFFCF8600DE00B4B1B6F1B0903F00303C3
:10102000FB60F868FFF7C4FCF86002E00123FB6096
:1010300000BF02E00123FB6000BFFB6818461437C5
:10104000BD4690BD00800C40802616008016120020
:1010500080002A0080062E0090071A0090171C00BE
:1010600090B585B000AF786039607B681B0903F0EC
:101070000F03FB60FB68013B0C2B00F20F8101A208
:1010800052F823F0B91000009D1200009D120000DC
:10109000ED1000009D1200009D12000035110000AF
:1010A00087110000491200009D1200009D120000EF
:1010B0009D120000151100003B68002B02D03B6818
:1010C000082B00BFFFF7F6FD774B1B6823F4E032D7
:1010D0003B68013B9B03744913430B60FFF734F9F2
:1010E000B8600021B868FFF707FED8E03B68002B26
:1010F00003D03B68B3F5007F00BF3868FFF765FC9D
:101100003860694B9B6823F00F0267493B681343C3
:101110008B60C4E03868FFF758FC0346013B3B6036
:10112000614B5B6823F480723B681B025E4913438A
:101130004B60B4E03B68002B03D03B68B3F5007F05
:1011400000BFFFF7B7FDFFF7FFF802463B68B2FBB1
:10115000F3F31846FFF7A8FC3868FFF736FC386051
:10116000514B5B6823F00F024F493B6813434B60C0
:10117000FFF7EAF8B8600021B868FFF7BDFDB8686E
:10118000FFF792FC8BE07B68484A93421ED0474AA7
:10119000934203D8464A934207D054E0454A9342CB
:1011A00025D0454A93423ED04DE00420FFF73AFE59
:1011B0003868FFF70AFC38603B4B9B6E23F0F00267
:1011C0003B681B01384913438B663CE00420FFF762
:1011D00029FE3868FFF7F9FB3860334B9B6E23F428
:1011E00070623B681B02304913438B662BE03B68FF
:1011F0000F2B02D93B68802B00BF0420FFF712FEA3
:101200003868FFF7E2FB3860274B9B6E23F44054AD
:101210001020FFF7DAFB02463B689B1A1B03224AA9
:10122000234393660FE00420FFF7FCFD3868FFF7C7
:10123000CCFB38601C4B9B6E23F003021A493B68C1
:1012400013438B6600BF2AE07B681C4A934203D09D
:101250001B4A934210D020E04020FFF7E3FD38689E
:10126000FFF7B3FB3860104B1B6F23F003020E49EE
:101270003B6813430B6710E04020FFF7D3FD38684D
:10128000FFF7A3FB3860084B1B6F23F030023B686D
:101290001B01054913430B6700BF00E000BF00BFFF
:1012A0001437BD4690BD00BF00800C40802616005C
:1012B0008016120080002A0080062E0090071A0077
:1012C00090171C0080B586B000AF78600B46FB70AD
:1012D00000233B617B681B0A03F00F03013B092BD2
:1012E00044D801A252F823F0231300002913000070
:1012F000111300006D1300006D1300002F13000088
:10130000391300006D1300006D130000431300003B
:10131000184B7B61FFF718F803461846FFF7C4FB2C
:1013200012E0154B7B610FE0144B7B610CE0144B1A
:101330007B6101233B6107E0124B7B6110233B6122
:1013400002E0114B7B6100BF7B681B0B03F01F03A6
:10135000FB603B69002B02D03869FFF763FDFB7827
:101360001A46F9687869FFF7F9FA00E000BF183704
:10137000BD4680BD40800C4008800C4044800C403D
:1013800058800C4060800C4078800C4090B585B04F
:1013900000AF78607B6803F47813B3F5D01F00F0DA
:1013A000B480B3F5D01F1AD8B3F5602F00F0C88011
:1013B000B3F5602F08D8B3F5003F45D0B3F5802FC3
:1013C00036D0002B30D0D2E0B3F5901F45D0B3F526
:1013D000B01F50D0B3F5801F00F0B680C7E0B3F562
:1013E000181F00F0B580B3F5181F0BD8B3F5F01F28
:1013F0002ED0B3F5001F00F08380B3F5E01F00F09E
:101400009180B4E0B3F5301F56D0B3F5301F03D848
:10141000B3F5281F3DD0AAE0B3F5381F63D0B3F56C
:10142000781F00F09980A2E0FEF7B2FFF860A1E01B
:10143000FEF7AEFFF860524B9B6803F00F03FA68AB
:1014400022FA03F3FB6095E0FEF77EFFF86091E07F
:101450004C48FFF771FCF8608CE04A48FFF76CFCE1
:10146000F860474B9B6E1B0903F00F03FA6822FAE2
:1014700003F3FB607EE04348FFF75EFCF860404BFF
:101480009B6E1B0A03F00F03FA6822FA03F3FB605A
:1014900070E03C48FFF750FCF860394B9B6E1B0B2B
:1014A00003F003041020FFF790FA03462344FA6880
:1014B00022FA03F3FB605DE03248FFF73DFCF86081
:1014C0002F4B9B6E1B0B03F00303FA6822FA03F306
:1014D000FB602B4BDB6F03F007030133FA68B2FBB1
:1014E000F3F3FB6046E02748FFF726FCF860244B47
:1014F0009B6E03F00303FA6822FA03F3FB6039E002
:101500002148FFF719FCF86034E01F48FFF714FC8E
:10151000F8601B4B1B6F03F00303FA6822FA03F316
:10152000FB6027E01848FFF707FCF860144B1B6FBF
:101530001B0903F00303FA6822FA03F3FB6019E0C6
:10154000FFF74CFBF86015E0FFF7F0FAF86011E0E8
:10155000FFF782FCF8600DE0FEF7F6FE04467868BF
:10156000FFF7ACFC0346B4FBF3F3FB6002E000239F
:10157000FB6000BFFB6818461437BD4690BD00BF36
:1015800000800C4002001E000300200080B485B0E3
:1015900000AF78600123FB737B6803F00F03BB602F
:1015A000BB68013B062B00F2938001A252F823F0A6
:1015B000CD150000031600003F160000D1160000F4
:1015C000D11600007B1600009D160000454BDB6A1B
:1015D00003F47053B3F5805F09D0B3F5005F03D017
:1015E000B3F5006F06D008E00223FB7308E0032385
:1015F000FB7305E00423FB7302E00523FB7300BFCC
:1016000069E0384B9B6A03F00303022B06D0032BDF
:1016100007D0012B08D10323FB730FE00223FB73D8
:101620000CE00623FB7309E02E4B9B6A03F4803326
:10163000002B02D00A23FB7300E000BF4BE0294BD4
:101640009B6A03F00C03082B06D00C2B07D0042B4D
:1016500008D10323FB730FE00223FB730CE0062386
:10166000FB7309E01F4B9B6A03F48013002B02D02D
:101670000A23FB7300E000BF2DE01A4B1B6803F048
:101680008053002B03D0B3F1805F03D023E0072306
:10169000FB7302E00923FB7300BF1CE0114BDB6A04
:1016A00003F46033B3F5803F08D0B3F5003F08D0B2
:1016B000B3F5004F08D10923FB7308E00223FB7345
:1016C00005E00323FB7302E00123FB7300BF02E08C
:1016D0000023FB7300BFFB7B18461437BD4680BC5C
:1016E000704700BF00800C4080B588B000AF7860C4
:1016F0000B46FB700323FB610323FB7600233B6156
:101700007B6803F00F03FB60FB68013B062B00F2D4
:10171000288101A252F823F0351700000B180000B1
:101720000B1800006319000063190000D1180000B5
:10173000FB180000FB78023B082B00F2148101A289
:1017400052F823F069170000731700007D1700009E
:10175000BF17000067190000671900006719000033
:1017600067190000671900000423FB610023FB7662
:1017700031E00323FB610123FB762CE00223FB61B4
:101780000223FB76FFF752F9034601331846FFF7B1
:101790008BF9FEF77DFE0246764B9A4206D9764BD0
:1017A0001B68754A43F06003136014E0724B1B68BA
:1017B00023F06003704A43F0200313600BE0012321
:1017C000FB610323FB76FFF731F90346013318462B
:1017D000FFF76AF900BFFB7E01220121184600F0E5
:1017E000EDF8FFF767FAFFF75DFB634AFB695362A9
:1017F000FEF7AAFDB860B868FFF756F90021B8688F
:10180000FFF77AFAFFF754FBB0E0FB78013B092BB6
:1018100000F2AB8001A252F823F000BF451800008F
:101820004B1800005B1800006B1900006B190000DA
:101830006B1800006B1900006B1900006B19000099
:101840008718000000237B6122E001220121002093
:1018500000F0B4F802237B611AE00122012101208B
:1018600000F0ACF801237B6112E0FEF76DFDB8607B
:10187000B868FFF719F9012204214048FFF76EF814
:1018800003237B6104E000237B6101233B6100BFF4
:10189000FB68022B0DD1384B9B6A23F4803323F075
:1018A00003037A691A433B691B04334913438B6270
:1018B0005CE0314B9B6A23F4801323F00C037A69BC
:1018C00092001A433B691B052B4913438B624DE081
:1018D000FB78072B02D0092B07D047E0264B1B686B
:1018E000254A23F08053136006E0234B1B68224AED
:1018F00043F08053136000BF38E0FB78032B14D013
:10190000092B22D0022B00D030E00122012100203F
:1019100000F054F8184B40225A6200BF164BDB6AA5
:1019200003F48033002BF9D01AE0012201210120B9
:1019300000F044F8104B60225A6200BF0E4BDB6A85
:1019400003F40033002BF9D00AE00B4B20225A623B
:1019500000BF094BDB6A03F40043002BF9D000BF42
:1019600004E000BF02E000BF00E000BF2037BD463A
:1019700080BD00BF0048E80100800C4040800C4062
:1019800080B483B000AF78600B4B9B6D03F008030D
:10199000002B0CD17B6803F007037B60064BDB6FE9
:1019A00023F0070204497B681343CB6700E000BFC4
:1019B0000C37BD4680BC704700800C4080B586B0B7
:1019C00000AF0346FB710B46BB7113467B71FB797D
:1019D000042B48D801A252F823F000BF291A0000B6
:1019E0001B1A0000FF190000F11900000D1A000079
:1019F00001233B610223FB6001237B611DE0042383
:101A00003B610823FB6003237B6116E010233B61ED
:101A10002023FB6005237B610FE040233B61802393
:101A2000FB6007237B6108E04FF480733B614FF458
:101A30000073FB6009237B6100BFBB79002B0ED0D4
:101A40000B4A3B6913627B79002B0DD000BF79698B
:101A50000848FEF799FF0346002BF8D004E0044A3B
:101A6000FB68136200E000BF1837BD4680BD00BFB1
:101A700000800C402C800C4080B483B000AF034643
:101A80003960FB71FB79002B0DD0FB79012B0AD05B
:101A9000FB79022B07D0FB79032B04D0FB79042BB5
:101AA00001D0FB79052B01223B6802FA03F30749B9
:101AB000FA7918461346DB0013449B000B44143399
:101AC000186000BF0C37BD4680BC70470060004006
:101AD00080B483B000AF03463960FB71FB79002B03
:101AE0000DD0FB79012B0AD0FB79022B07D0FB79B3
:101AF000032B04D0FB79042B01D0FB79052B0122A9
:101B00003B6802FA03F30749FA7918461346DB00EB
:101B100013449B000B441033186000BF0C37BD46C4
:101B200080BC70470060004080B584B000AFB960F1
:101B30007B600346FB731346BB73FB7B002B0DD00E
:101B4000FB7B012B0AD0FB7B022B07D0FB7B032BFB
:101B500004D0FB7B042B01D0FB7B052BBB7B002B34
:101B60000DD07B68002B05D0FB7BB9681846FFF7CA
:101B7000AFFF04E0FB7BB9681846FFF77DFFBB6849
:101B8000072B20D82D49FA7B1346DB0013449B001A
:101B90000B4404331A68BB689B000F2101FA03F35E
:101BA000DB431340B97BBA68920001FA02F2114696
:101BB0002248FA7B19431346DB0013449B0003447D
:101BC0000433196025E01D49FA7B1346DB001344FA
:101BD0009B000B4408331A68BB6803F18043083B41
:101BE0009B000F2101FA03F3DB4302EA0301BA7BF6
:101BF000BB6803F18043083B9B0002FA03F30F48E4
:101C0000FA7B19431346DB0013449B00034408335B
:101C10001960BB7B002B0DD17B68002B05D0FB7BB3
:101C2000B9681846FFF754FF04E0FB7BB968184613
:101C3000FFF722FF00BF1037BD4680BD00600040A7
:101C400080B483B000AF0346FB71FB79002B06D054
:101C5000084B1B68074A43F00103136005E0054B7E
:101C60001B68044A23F00103136000BF0C37BD4614
:101C700080BC704700A0084080B487B000AFF86017
:101C8000B9607A60FB6803F10473DA00BB6813443F
:101C90009B007B617B697A681A6000BF1C37BD4678
:101CA00080BC704780B584B000AF78601A4B5B6829
:101CB000FB600020FFF7C4FFFB6823F4830323F0DD
:101CC0001F03FB607B685B68FA681343FB607B68FB
:101CD0001B7A1A46FB681343FB607B685B7A1A46E3
:101CE000FB681343FB607B68DB68FA681343FB60A7
:101CF0007B681B8A1A46FB681343FB60064AFB6835
:101D000053607B681B78002B02D00120FFF798FFFF
:101D100000BF1037BD4680BD00A0084080B485B02C
:101D200000AF78600D4B5B68FB60FB6823F4803389
:101D3000FB607B68002B08D0B3F5803F00D005E046
:101D4000FB6843F48033FB6000E000BF034AFB689C
:101D5000536000BF1437BD4680BC704700A00840E8
:101D600080B483B000AF03460A46FB8013467B7104
:101D70007B79002B06D0094B9A68FB8807491343EF
:101D80008B6006E0054B9A68FB88DB4303491340F0
:101D90008B6000BF0C37BD4680BC704700A0084078
:101DA00080B584B000AFF860B9601346FB71FB6882
:101DB000072B00F2B38001A252F823F0DD1D0000D2
:101DC000051E00002D1E0000551E00007D1E000097
:101DD000A51E0000CD1E0000F51E0000BB681F2BD5
:101DE00006DCBB68FA7919464F48FFF745FF96E0D5
:101DF000BB68203BBB60BB68FA7919464B48FFF7CC
:101E00003BFF8CE0BB681F2B06DCBB68FA791946E8
:101E10004748FFF731FF82E0BB68203BBB60BB68EF
:101E2000FA7919464348FFF727FF78E0BB681F2B74
:101E300006DCBB68FA7919463F48FFF71DFF6EE0E4
:101E4000BB68203BBB60BB68FA7919463B48FFF78B
:101E500013FF64E0BB681F2B06DCBB68FA791946E8
:101E60003748FFF709FF5AE0BB68203BBB60BB68FF
:101E7000FA7919463348FFF7FFFE50E0BB681F2B85
:101E800006DCBB68FA7919462F48FFF7F5FE46E0F5
:101E9000BB68203BBB60BB68FA7919462B48FFF74B
:101EA000EBFE3CE0BB681F2B06DCBB68FA791946E9
:101EB0002748FFF7E1FE32E0BB68203BBB60BB6810
:101EC000FA7919462348FFF7D7FE28E0BB681F2B95
:101ED00006DCBB68FA7919461F48FFF7CDFE1EE005
:101EE000BB68203BBB60BB68FA7919461B48FFF70B
:101EF000C3FE14E0BB681F2B06DCBB68FA791946E9
:101F00001748FFF7B9FE0AE0BB68203BBB60BB681F
:101F1000FA7919461348FFF7AFFE00E000BF00BF93
:101F20001037BD4680BD00BF40A0084050A008400B
:101F300044A0084054A0084048A0084058A00840C9
:101F40004CA008405CA00840CCA00840B4A00840C9
:101F5000D0A00840B8A00840D4A00840BCA00840C9
:101F6000D8A00840C0A0084080B487B000AFF86097
:101F7000B9607A60FB68072B00F2AC8001A252F8CE
:101F800023F000BFA51F0000C91F0000ED1F0000C7
:101F900011200000352000005D2000008520000099
:101FA000AD2000004E4B1B6C7B61BB68DB437A6944
:101FB00013407B61BA687B6813407A6913437B6185
:101FC000474A7B69136486E0454B5B6C7B61BB6869
:101FD000DB437A6913407B61BA687B6813407A6996
:101FE00013437B613E4A7B69536474E03C4B9B6CBA
:101FF0007B61BB68DB437A6913407B61BA687B68AD
:1020000013407A6913437B61354A7B69936462E0CC
:10201000334BDB6C7B61BB68DB437A6913407B61CC
:10202000BA687B6813407A6913437B612C4A7B69E9
:10203000D36450E02A4BD3F8CC307B61BB68DB43E0
:102040007A6913407B61BA687B6813407A691343ED
:102050007B61234A7B69C2F8CC303CE0204BD3F84B
:10206000D0307B61BB68DB437A6913407B61BA681F
:102070007B6813407A6913437B61194A7B69C2F814
:10208000D03028E0164BD3F8D4307B61BB68DB43FB
:102090007A6913407B61BA687B6813407A6913439D
:1020A0007B610F4A7B69C2F8D43014E00C4BD3F843
:1020B000D8307B61BB68DB437A6913407B61BA68C7
:1020C0007B6813407A6913437B61054A7B69C2F8D8
:1020D000D83000E000BF00BF1C37BD4680BC704751
:1020E00000A0084080B487B000AFF860B9607A60A3
:1020F000FB68072B00F2AC8001A252F823F000BF6E
:102100002121000045210000692100008D210000EF
:10211000B1210000D9210000012200002922000085
:102120004E4B1B6D7B61BB68DB437A6913407B615F
:10213000BA687B6813407A6913437B61474A7B69BD
:10214000136586E0454B5B6D7B61BB68DB437A6959
:1021500013407B61BA687B6813407A6913437B61E3
:102160003E4A7B69536574E03C4B9B6D7B61BB6869
:10217000DB437A6913407B61BA687B6813407A69F4
:1021800013437B61354A7B69936562E0334BDB6DBA
:102190007B61BB68DB437A6913407B61BA687B680B
:1021A00013407A6913437B612C4A7B69D36550E005
:1021B0002A4BD3F8B4307B61BB68DB437A691340A8
:1021C0007B61BA687B6813407A6913437B61234A59
:1021D0007B69C2F8B4303CE0204BD3F8B8307B6167
:1021E000BB68DB437A6913407B61BA687B68134044
:1021F0007A6913437B61194A7B69C2F8B83028E0D9
:10220000164BD3F8BC307B61BB68DB437A69134063
:102210007B61BA687B6813407A6913437B610F4A1C
:102220007B69C2F8BC3014E00C4BD3F8C0307B6142
:10223000BB68DB437A6913407B61BA687B681340F3
:102240007A6913437B61054A7B69C2F8C03000E0BC
:1022500000BF00BF1C37BD4680BC704700A00840CF
:1022600080B483B000AF7860064B5B6823F4E01263
:1022700004497B6813434B6000BF0C37BD4680BCEC
:10228000704700BF00A0084080B485B000AF786000
:102290001A4B5B69DBB29B00DBB203F03C03FB73C0
:1022A000164B1B699B09DBB203F00303DAB2FB7B1D
:1022B0001343FB737B68FA7B9A70104B1B69DBB28C
:1022C00003F03F03DAB27B685A700C4B9B691B0921
:1022D000DBB21B01FB73094BDB691B09DBB203F0AB
:1022E0000F03DAB2FB7B1343FB737B68FA7B1A7034
:1022F00000BF1437BD4680BC704700BFD0FF0FE061
:1023000080B483B000AF78607B680D4A93420BD0F5
:102310007B680C4A934207D07B680B4A934203D0F8
:102320007B680A4A934201D1012300E0002303F0B5
:102330000103DBB218460C37BD4680BC704700BFB6
:10234000000001400004014000080140000C014071
:1023500080B584B000AF786039607868FFF7D0FF4F
:102360000023FB603B681B7883F00103DBB2002B8A
:1023700002D07B6802225A607B6800225A623B6866
:102380009B781A063B68DB781B041A433B689B79F1
:102390009B021A433B68DB791B0213433A68127AAB
:1023A00013433A685278002A01D0402200E000220C
:1023B00013433A68527A002A01D0802200E00022BA
:1023C00013433A68927A002A01D0202200E00022CA
:1023D00013433A68D27A002A01D0102200E000228A
:1023E00013433A68127B002A01D0082200E0002241
:1023F0001343FB603B681B79002B02D04FF4005263
:1024000000E000223B685B79002B02D04FF0805344
:1024100000E000231343FA681343FB607B68FA680B
:102420001A603B681B78002B02D07B6801225A603F
:1024300000BF1037BD4680BD80B483B000AF786068
:102440000B46FB70FB7843F01003DBB21A467B6847
:102450009A6500BF0C37BD4680BC704780B586B01A
:1024600000AFF860B9607A60FB70BB68002B03D1E5
:102470002448FEF78BFFB860FB78202B0CD0202B74
:1024800002DC002B05D03AE0402B08D0602B09D0AD
:1024900035E010237B6108E008237B6105E006231B
:1024A0007B6102E004237B6100BFBB689A007B690B
:1024B000796801FB03F35B0813443B617B697A682D
:1024C00002FB03F33A69B2FBF3F33B613B69043B64
:1024D0003B613B699B013B613A690B4B13403B619C
:1024E000FB681B6823F06002FB681A60FB681A68CF
:1024F000FB781A43FB681A60FB683A695A6118371F
:10250000BD4680BD40810400C0FF1F0080B582B081
:1025100000AF786039607B68284A93420ED07B68B0
:10252000274A93420AD07B68264A934206D07B68AA
:10253000254A934202D07B68244A934200BF7868C0
:1025400000F046F83B689B7C002B05D07B681B683D
:1025500043F080427B681A603B68DB7C002B05D02F
:102560003B681B7D19467868FFF766FF3B685B7B1D
:102570001A463B681B8A13433A68D2891A437B6820
:102580005A603B6859683B689A683B681B7B78686F
:10259000FFF764FF3B685B7D002B05D07B681B6801
:1025A00043F480327B681A603B681B781A467B686C
:1025B000DA6000BF0837BD4680BD00BF00C00040E4
:1025C00000C4004000C8004000E0004000E40040BB
:1025D00080B483B000AF78607B68244A93420ED009
:1025E0007B68234A93420AD07B68224A934206D0F2
:1025F0007B68214A934202D07B68204A934200BF05
:102600007B6840F6AA62DA607B6800221A607B6809
:1026100041F205025A607B6800229A607B680022C2
:102620005A617B680022DA647B6841F6F9729A6429
:102630007B6800225A657B680C4A934202D17B6812
:1026400000221A657B6800229A657B68084A9342DB
:1026500003D07B68074A934202D17B680022DA6587
:1026600000BF0C37BD4680BC704700BF00C00040B3
:1026700000C4004000C8004000E0004000E400400A
:1026800080B483B000AF78600B46FB7000BF7B68FE
:102690001B6903F04003002BF9D0FA787B685A637A
:1026A00000BF0C37BD4680BC7047000080B400AF4F
:1026B000034BDB6C1B0EDBB21846BD4680BC70477B
:1026C000B081E00F80B582B000AF0E4B01221A64DA
:1026D000FFF7ECFF0346FB713B1D1846FFF7D4FDE7
:1026E000FB790F2B0AD93B79022B07D9064B1B68C4
:1026F00023F05003044A43F01003136000BF08376F
:10270000BD4680BD00000C40C0800C40F0B5A3B0B9
:1027100008AFFFF7D7FF01F0F7F901F02DF900201E
:10272000FDF778FFFDF760FDFDF71EFF002387F83A
:10273000673007F13C066D4607F148040FCC0FC522
:1027400094E8070085E8070007F13C030ECB30460C
:1027500000F090F96D4607F14C040FCC0FC594E8DA
:10276000030085E8030007F13C030FCB00F0C4F938
:10277000034687F82B307A4B1B78DBB2002B0CD04A
:10278000774B00221A70774B1B68DBB219467648EC
:10279000FFF776FF754B01221A70754B1B78DBB281
:1027A000002B00F0D780724B00221A7097F863302C
:1027B000002B00F09A806D4B1B78DBB2002B29D0E8
:1027C000684B1B68DBB23E4607936D4607F1480431
:1027D0000FCC0FC594E8070085E8070007F13C031C
:1027E0000ECB304600F0B0F93C4607F13C0604F150
:1027F000200C35462346186859689A68DB680FC56F
:10280000103410366445F4D13346224610685168BE
:1028100003C324E03E466D4607F148040FCC0FC5C4
:1028200094E8070085E8070007F13C030ECB30462B
:1028300000F066FA3C4607F13C0604F1200C3546F0
:102840002346186859689A68DB680FC5103410363B
:102850006445F4D1334622461068516803C3434BA4
:1028600000221A703E4607F12B0307936D4607F1CD
:1028700048040FCC0FC594E8070085E8070007F16E
:102880003C030ECB304600F0A9FA3C4607F13C066B
:1028900004F1200C35462346186859689A68DB68AD
:1028A0000FC5103410366445F4D133462246106803
:1028B000516803C397F82B3007F12C020792069357
:1028C0006D4607F14C040FCC0FC594E8030085E872
:1028D000030007F13C030FCB00F0FEFEB88507F1C3
:1028E0002C03184600F06EF834E0FDF73DFE97F833
:1028F0006730002B17D001210B20FDF7A3FF01212A
:102900000C20FDF79FFF01210D20FDF79BFF01210A
:102910000E20FDF797FF01210F20FDF793FF002305
:1029200087F8673016E000210B20FDF78BFF0021B0
:102930000C20FDF787FF00210D20FDF783FF00210C
:102940000E20FDF77FFF00210F20FDF77BFF012305
:1029500087F8673097F861301846FDF7B7FE0AE749
:10296000590100207001002000E0004068010020B3
:102970005801002080B483B000AF0346FB71FB799F
:10298000002B03D0054B01221A6602E0034B002204
:102990001A6600BF0C37BD4680BC704700A00840D7
:1029A00080B483B000AF786000BF054B5A6E7B687F
:1029B0001340002BF9D100BF0C37BD4680BC7047D7
:1029C00000A0084080B586B000AF78604FF0FF30BF
:1029D000FFF7E6FF0120FFF7CDFF0023BB753CE0CA
:1029E0000023FB7533E0BA7DF97D21481346DB00F7
:1029F0009B1A9B0003440B440E331B783B61BA7D4A
:102A0000F97D1B481346DB009B1A9B0003440B44D3
:102A10001B78FB60BB7D5B007A6813441B881A46F9
:102A2000FB7D42FA03F303F00103002B06D0FB68A1
:102A3000396901221846FFF7B3F905E0FB683969E7
:102A400000221846FFF7ACF9FB7D0133FB75FB7DD7
:102A50000D2BC8D9BB7D0133BB75BB7D062BBFD900
:102A60000020FFF787FF00BF1837BD4680BD00BFBD
:102A70000C00002084B0F0B585B000AF786007F19D
:102A80002C0080E80E000023FB7308E0FB7B07F1BD
:102A90002802134400221A71FB7B0133FB73FB7B7A
:102AA000242BF3D9012387F83B30012387F85130D9
:102AB000032387F85230012387F853307B6807F1EE
:102AC0002C049C4604F1200E654626460FCE286055
:102AD0006960AA60EB6010340CF1100C7445F3D1FE
:102AE0006246234603CB1060516078681437BD46B8
:102AF000BDE8F04004B0704784B080B582B000AF4C
:102B000007F1100C8CE80F0001F09AF801460D4B0C
:102B100083FB0123DA10CB17D21A1346DB001344D0
:102B20009B00CA1A1346FB71FB7907F11002D35CB4
:102B3000002BE9D1FB7918460837BD46BDE8804037
:102B400004B07047398EE33884B0F0B589B000AF77
:102B5000786007F13C0080E80E0097F864306A2B3B
:102B600046D197F862300B2B2AD801A252F823F0F5
:102B7000B92B0000B12B0000A92B0000A12B0000F5
:102B8000A92B0000A92B0000A12B0000A12B000005
:102B9000B12B0000B12B0000B92B0000B92B0000B5
:102BA000082387F8623088E00B2387F8623084E0DE
:102BB000052387F8623080E0062387F862307CE0E6
:102BC000002387F86130032387F86230002387F8F9
:102BD000633008E0FB7F07F13802134400221A71CA
:102BE000FB7F0133FB77FB7F232BF3D900BF64E02E
:102BF00097F86430622B47D197F862300B2B2BD8B3
:102C000001A252F823F000BF512C0000492C000013
:102C1000412C0000392C0000412C0000412C000008
:102C2000392C0000392C0000492C0000492C0000F0
:102C3000512C0000512C00000A2387F862303CE040
:102C4000092387F8623038E0072387F8623034E0E0
:102C5000042387F8623030E0002387F861300323D3
:102C600087F86230002387F8633008E0BB7F07F104
:102C70003802134400221A71BB7F0133BB77BB7F3C
:102C8000232BF3D900BF18E01B4B07F10C040FCB2B
:102C900084E80F0000237B770CE07B7F07F12002A4
:102CA000134413F8143C19461448FFF7E9FC7B7FE2
:102CB00001337B777B7F0E2BEFD97B6807F13C04D8
:102CC0009C4604F1200E654626460FCE28606960BA
:102CD000AA60EB6010340CF1100C7445F3D162461D
:102CE000234603CB1060516078682437BD46BDE8A9
:102CF000F04004B0704700BF1040000000E000400A
:102D000084B0F0B585B000AF786007F12C0080E8A2
:102D10000E0097F852300B2B2AD801A252F823F05C
:102D2000692D0000612D0000592D0000512D00007B
:102D3000592D0000592D0000512D0000512D00008B
:102D4000612D0000612D0000692D0000692D00003B
:102D5000032387F8523022E0022387F852301EE026
:102D6000012387F852301AE0002387F8523016E02A
:102D7000002387F85130032387F85230002387F867
:102D8000533008E0FB7B07F12802134400221A713C
:102D9000FB7B0133FB73FB7B232BF3D900BF7B68E9
:102DA00007F12C049C4604F1200E654626460FCE02
:102DB00028606960AA60EB6010340CF1100C744557
:102DC000F3D16246234603CB106051607868143714
:102DD000BD46BDE8F04004B0704700BF84B0F0B518
:102DE0008DB006AF786007F1340080E80E006423F0
:102DF000BB7501237B7500233B750FE03B7D07F11D
:102E0000300213441A7997F859309A4203D13B7D26
:102E1000FB7500237B753B7D01333B753B7D242B8C
:102E2000ECD90023FB740DE0FB7C07F13002134466
:102E30001A7997F859309A4201D901237B75FB7CA6
:102E40000133FB74FB7C242BEED97B7D002B30D02F
:102E5000002387F85B300023BB7408E0BB7C07F1DC
:102E60003002134400221A71BB7C0133BB74BB7C5B
:102E7000242BF3D9002387F85930032387F85A30DD
:102E80007B6807F134049C4604F1200E6546264613
:102E90000FCE28606960AA60EB6010340CF1100C52
:102EA0007445F3D16246234603CB1060516000F0B5
:102EB0000BBC01237B7497F85A30002B03D097F892
:102EC0005A30012B47D1FB7D062B1DD9FB7D0E2BE4
:102ED0001AD8FB7D0F3307F1300213441B79012B05
:102EE00002D9002387F85B3097F85920FB7D0F3318
:102EF0000132D2B207F130010B441A71FB7D0F335E
:102F0000BB752523FB7525E0FB7D152B1DD9FB7DAE
:102F10001D2B1AD8FB7D0F3B07F1300213441B79A0
:102F2000012B02D9002387F85B3097F85920FB7DED
:102F30000F3B0132D2B207F130010B441A71FB7D15
:102F40000F3BBB752523FB7504E001237B7525230F
:102F5000FB752CE32BE397F85A30022B55D1FB7D00
:102F6000002B02D0FB7D062B0BD9FB7D0F2B02D94A
:102F7000FB7D152B05D9FB7D1E2B1DD9FB7D242B3D
:102F80001AD8FB7D013B07F1300213441B79012B5A
:102F900002D9002387F85B3097F85920FB7D013B6D
:102FA0000132D2B207F130010B441A71FB7D013BB3
:102FB000BB752523FB75FAE2FB7D002B05D0FB7D5D
:102FC0000F2B02D0FB7D1E2B1AD1FB7D063307F1A0
:102FD000300213441B79012B02D9002387F85B30A0
:102FE00097F85920FB7D06330132D2B207F1300148
:102FF0000B441A71FB7D0633BB752523FB75D6E2A6
:1030000001237B752523FB75D1E297F85A30032BFA
:1030100052D1FB7D052B0BD9FB7D0E2B02D9FB7DFD
:10302000142B05D9FB7D1D2B1DD9FB7D232B1AD815
:10303000FB7D013307F1300213441B79012B02D9C8
:10304000002387F85B3097F85920FB7D013301326C
:10305000D2B207F130010B441A71FB7D0133BB750D
:103060002523FB75A3E2FB7D062B05D0FB7D152BED
:1030700002D0FB7D242B1AD1FB7D063B07F13002E9
:1030800013441B79012B02D9002387F85B3097F892
:103090005920FB7D063B0132D2B207F130010B44CF
:1030A0001A71FB7D063BBB752523FB757FE201236F
:1030B0007B752523FB757AE297F85A30042B4CD1A7
:1030C000FB7D072B02D9FB7D0E2B05D9FB7D162B33
:1030D0001DD9FB7D1D2B1AD8FB7D083B07F1300263
:1030E00013441B79012B02D9002387F85B3097F832
:1030F0005920FB7D083B0132D2B207F130010B446D
:103100001A71FB7D083BBB752523FB754FE2FB7DE8
:10311000072B02D0FB7D162B1AD1FB7D013B07F15B
:10312000300213441B79012B02D9002387F85B304E
:1031300097F85920FB7D013B0132D2B207F13001F3
:103140000B441A71FB7D013BBB752523FB752EE2F9
:1031500001237B752523FB7529E297F85A30052B4F
:103160004CD1FB7D072B02D9FB7D0E2B05D9FB7DB6
:10317000162B1DD9FB7D1D2B1AD8FB7D073307F1BC
:10318000300213441B79012B02D9002387F85B30EE
:1031900097F85920FB7D07330132D2B207F1300195
:1031A0000B441A71FB7D0733BB752523FB75FEE1CC
:1031B000FB7D072B02D0FB7D162B1AD1FB7D0E3336
:1031C00007F1300213441B79012B02D9002387F841
:1031D0005B3097F85920FB7D0E330132D2B207F1F4
:1031E00030010B441A71FB7D0E33BB752523FB7533
:1031F000DDE101237B752523FB75D8E197F85A3073
:10320000062B4CD1FB7D062B02D9FB7D0D2B05D95E
:10321000FB7D152B1DD9FB7D1C2B1AD8FB7D073B95
:1032200007F1300213441B79012B02D9002387F8E0
:103230005B3097F85920FB7D073B0132D2B207F192
:1032400030010B441A71FB7D073BBB752523FB75D1
:10325000ADE1FB7D0E2B02D0FB7D1D2B1AD1FB7D3A
:103260000E3B07F1300213441B79012B02D90023D6
:1032700087F85B3097F85920FB7D0E3B0132D2B2C4
:1032800007F130010B441A71FB7D0E3BBB75252302
:10329000FB758CE101237B752523FB7587E197F88E
:1032A0005A30072B4CD1FB7D062B02D9FB7D0D2B11
:1032B00005D9FB7D152B1DD9FB7D1C2B1AD8FB7D59
:1032C000083307F1300213441B79012B02D9002384
:1032D00087F85B3097F85920FB7D08330132D2B272
:1032E00007F130010B441A71FB7D0833BB752523B0
:1032F000FB755CE1FB7D0E2B02D0FB7D1D2B1AD1F3
:10330000FB7D013307F1300213441B79012B02D9F5
:10331000002387F85B3097F85920FB7D0133013299
:10332000D2B207F130010B441A71FB7D0133BB753A
:103330002523FB753BE101237B752523FB7536E1D6
:1033400097F85A30082B49D1FB7D062B05D9FB7D18
:103350000E2B1DD9FB7D152B1AD8FB7D083307F1E9
:10336000300213441B79012B02D9002387F85B300C
:1033700097F85920FB7D08330132D2B207F13001B2
:103380000B441A71FB7D0833BB752523FB750EE1D9
:10339000FB7D1D2B1DD9FB7D242B1AD8FB7D163BF5
:1033A00007F1300213441B79012B02D9002387F85F
:1033B0005B3097F85920FB7D163B0132D2B207F102
:1033C00030010B441A71FB7D163BBB752523FB7541
:1033D000EDE001237B752523FB75E8E097F85A3073
:1033E000092B49D1FB7D062B05D9FB7D0E2B1DD961
:1033F000FB7D152B1AD8FB7D073307F130021344F0
:103400001B79012B02D9002387F85B3097F85920EC
:10341000FB7D07330132D2B207F130010B441A7140
:10342000FB7D0733BB752523FB75C0E0FB7D1D2BA2
:103430001DD9FB7D242B1AD8FB7D173B07F13002E9
:1034400013441B79012B02D9002387F85B3097F8CE
:103450005920FB7D173B0132D2B207F130010B44FA
:103460001A71FB7D173BBB752523FB759FE001237C
:103470007B752523FB759AE097F85A300A2B49D1C2
:10348000FB7D0E2B02D9FB7D152B05D9FB7D1D2B5A
:103490001DD9FB7D242B1AD8FB7D073B07F1300299
:1034A00013441B79012B02D9002387F85B3097F86E
:1034B0005920FB7D073B0132D2B207F130010B44AA
:1034C0001A71FB7D073BBB752523FB756FE0FB7D08
:1034D000062B1AD8FB7D173307F1300213441B79F2
:1034E000012B02D9002387F85B3097F85920FB7D28
:1034F00017330132D2B207F130010B441A71FB7D50
:103500001733BB752523FB7551E001237B752523FC
:10351000FB754CE097F85A300B2B48D1FB7D0E2BF6
:1035200002D9FB7D152B05D9FB7D1D2B1DD9FB7DFC
:10353000242B1AD8FB7D083B07F1300213441B797A
:10354000012B02D9002387F85B3097F85920FB7DC7
:10355000083B0132D2B207F130010B441A71FB7DF6
:10356000083BBB752523FB7521E0FB7D062B1AD894
:10357000FB7D163307F1300213441B79012B02D96E
:10358000002387F85B3097F85920FB7D1633013212
:10359000D2B207F130010B441A71FB7D1633BB75B3
:1035A0002523FB7503E001237B752523FB757B7DBC
:1035B000002B2FD0002387F85B3000233B7408E0FA
:1035C0003B7C07F13002134400221A713B7C01332B
:1035D0003B743B7C242BF3D9002387F85930032319
:1035E00087F85A307B6807F134049C4604F1200EBA
:1035F000654626460FCE28606960AA60EB601034ED
:103600000CF1100C7445F3D16246234603CB1060D5
:10361000516059E097F859300133DBB287F85930DF
:10362000FB6D1B78BA7D9A4222D00023FB7314E015
:10363000FB7B07F1300213441B79002B0AD0FB7B84
:1036400007F130021A441279013AD2B207F130017F
:103650000B441A71FB7B0133FB73FB7B242BE7D9F3
:1036600097F85930013BDBB287F8593000237B745F
:103670007B7C002B11D06D4607F144040FCC0FC5A5
:1036800094E8030085E8030007F134030FCBFFF74C
:1036900033FA03461A46FB6D1A707B6807F134044F
:1036A0009C4604F1200E654626460FCE28606960D0
:1036B000AA60EB6010340CF1100C7445F3D1624633
:1036C000234603CB1060516078681C37BD46BDE8C7
:1036D000F04004B07047000084B080B483B000AF05
:1036E00007F1100C8CE80F000023FB7108E0FB7958
:1036F0005B00FA6B134400221A80FB790133FB71E3
:10370000FB79062BF3D997F83830012207F1100125
:10371000CA540023BB71B1E0BB7907F11002D35C3E
:10372000002B00F0A580BB79242B00F2A38001A21E
:1037300052F823F0C9370000C9370000C93700002C
:10374000C9370000C9370000C9370000C937000079
:10375000DB370000DB370000DB370000DB37000021
:10376000DB370000DB370000DB370000F3370000F9
:10377000033800000338000003380000033800005D
:10378000033800000338000003380000313800001F
:103790003138000031380000313800003138000085
:1037A0003138000031380000493800005938000035
:1037B00059380000593800005938000059380000C5
:1037C0005938000059380000BB795B00FA6B1A4485
:1037D000137843F0010313704DE0BB7903F100430C
:1037E000073B5B00FA6B1A44137843F02003137015
:1037F00041E0FB6B03F10C02137843F002031370FA
:1038000039E0BB7903F100430F3B5B00FA6B1A44CC
:10381000137843F040031370BB7903F100430F3B6F
:103820005B00FA6B1A44537843F00403537022E0B0
:10383000BB7903F10043163B5B00FA6B1A44137823
:1038400043F01003137016E0FB6B03F10C021378C6
:1038500043F0040313700EE0BB7903F100431E3BF9
:103860005B00FA6B1A44137843F00803137002E00C
:1038700000BF00E000BFBB790133BB71BB79242BD3
:103880007FF64AAFFB6B1B8818460C37BD4680BCE1
:1038900004B0704780B483B000AF0346FB7197F962
:1038A0000730002B0BDBFB7903F01F02064997F969
:1038B00007305B09012000FA02F241F8232000BF23
:1038C0000C37BD4680BC704700E100E080B483B097
:1038D00000AF78604FF6FF7318460C37BD4680BCCA
:1038E000704780B582B000AF786039607868FFF7C4
:1038F000EDFF7B683A685A6200BF0837BD4680BD5D
:1039000080B483B000AF786039607B683A689A61B0
:1039100000BF0C37BD4680BC704780B483B000AF99
:10392000786039607B68DA683B681A437B68DA60E4
:1039300000BF0C37BD4680BC704780B582B000AF79
:10394000786039607868FFF7C1FF7B683A68DA61B0
:1039500000BF0837BD4680BD80B500AF044B0122D3
:103960001A7001210348FFF7CBFF00BF80BD00BFE5
:10397000580100200000014080B584B000AF012153
:103980001E48FDF76DFB01211D48FDF79BFC3B46E2
:1039900000221A605A609A601A7301233B70082350
:1039A000BB703B4619461748FEF7D2FC002115486C
:1039B000FFF797FF46F6D0211248FFF7BEFF01211F
:1039C0001048FFF79DFF01210E48FFF7A6FF0220D8
:1039D000FFF760FFFCF7DCFB0B4B5B681A460B4BF9
:1039E0001A60094B5B68094A12689B1A013B1A4628
:1039F000064B1A6000BF1037BD4680BD40810400F1
:103A00000052040000000140001000E06C010020A2
:103A100080B483B000AF0346FB7197F90730002BE9
:103A20000BDBFB7903F01F02064997F907305B09AE
:103A3000012000FA02F241F8232000BF0C37BD46F6
:103A400080BC704700E100E080B483B000AF034663
:103A5000FB7197F90730002B0CDBFB7903F01F0299
:103A6000074997F907305B09012000FA02F2603339
:103A700041F8232000BF0C37BD4680BC704700BF13
:103A800000E100E080B483B000AF786039607B680B
:103A90003A689A6400BF0C37BD4680BC704780B45A
:103AA00083B000AF786039607B68DA6C3B681A439A
:103AB0007B68DA6400BF0C37BD4680BC704780B4B9
:103AC00083B000AF78607B68DB69DBB218460C37E7
:103AD000BD4680BC7047000080B500AF0748FFF7C7
:103AE000EEFF03461A46064B1A60064B01221A7077
:103AF00004210248FFF7C6FF00BF80BD00E0004080
:103B00007001002059010020B0B586B000AF264BEF
:103B10005B6C254A43F400535364012304220721BC
:103B20000520FEF701F801212048FDF7CBFB204BD3
:103B30003C461D460FCD0FC495E8030084E8030002
:103B40003B4619461B48FEF7E1FC012304220021F5
:103B50000420FDF7E9FF0023012201210420FDF7E5
:103B6000E3FF144B5B6D134A43F480735365114BB1
:103B70005B6D104A43F0030353652B210D48FEF79C
:103B80007FFD04210B48FFF77DFF04210948FFF763
:103B900086FF1420FFF758FF1420FFF739FF00BFFE
:103BA0001837BD46B0BD00BF00800C400032040095
:103BB0002040000000E000400028B8BF40427047AD
:103BC00008B5074B044613B10021AFF30080054B45
:103BD0001868836A03B19847204600F0E7F800BFF1
:103BE000000000003840000070B500250C4E0D4C60
:103BF000A41BA410A54209D100F0DAF800250A4E52
:103C00000A4CA41BA410A54205D170BD56F825305E
:103C100098470135EEE756F8253098470135F2E729
:103C2000340100203401002034010020380100203C
:103C300003460244934200D1704703F8011BF9E7A1
:103C400038B5134B1C68A36B7BB9182000F02CF817
:103C5000104A114BA063C0E90023104B012283607E
:103C60000B2383810023C0E90423A16B0C480A695C
:103C70004B6950430B4C04FB0300A2FB0423034499
:103C8000541C43F10005C1E9044525F0004038BD4E
:103C9000D00000200E33CDAB34126DE6ECDE050013
:103CA0002DF451582D7F954C024B0146186800F0B9
:103CB00003B800BFD000002070B5CD1C25F003056F
:103CC00008350C2D38BF0C25002D064601DBA94216
:103CD00003D90C233360002070BD00F057F8214A4F
:103CE0001468214691B9204C23681BB9304600F076
:103CF0003DF820602946304600F038F8431C24D1B6
:103D00000C233046336000F042F8E4E70B685B1B9D
:103D100018D40B2B0FD90B60CC18CD50304600F0C7
:103D200036F804F10B00231D20F00700C31AD3D08E
:103D30005A42E250D0E74B688C4216BF6360136072
:103D40000C46EBE70C464968CCE7C41C24F003049E
:103D5000A04205D0211A304600F008F80130CFD03B
:103D60002560DBE75C0100206001002038B50023FE
:103D7000054C05460846236000F00AF8431C02D1B2
:103D8000236803B12B6038BD740100207047704771
:103D9000044A05491368002B08BF0B4618441060FD
:103DA000184670476401002078010020FEE700BF3C
:103DB000F8B500BFF8BC08BC9E467047F8B500BF18
:103DC000F8BC08BC9E4670470400000002000000DA
:103DD00004000000030000000101050707030402BE
:103DE0000302040605060D0E0E0E0D0D0D0D0E0E32
:103DF0000E0E0D0D01010507070304020302040660
:103E000005060F1010100F0F0F0F101010100F0FCE
:103E10000101050707030402030204060506111247
:103E200012121111111112121212111101010507B2
:103E300007030402030204060506131C1C1C1313CB
:103E400013131C1C1C1C131300010507060203019D
:103E50000302040604051D1E1E1E1D1D1D1D1E1E23
:103E60001E1E1D1D000105070602030103020406B4
:103E700004051F2020201F1F1F1F202020201F1F80
:103E800001010507070304020302040605062122B7
:103E90002222212121212222222221210705020181
:103EA00003060423232323232323070502010306F8
:103EB00004242424242424240705020103060425C1
:103EC0002525252525250705020103060426262686
:103ED0002626262600010702062727272727000077
:103EE000000000000000131211100F0E0D0C000056
:103EF00000002125242601010304040203020D0E03
:103F00000D0D0E0D0E0E01010304040203020F102D
:103F10000F0F100F1010010103040402030211120D
:103F20001111121112120101030404020302131CE5
:103F300013131C131C1C00010203040103021D1EA9
:103F40001D1D1E1D1E1E00010203040103021F2071
:103F50001F1F201F2020010103040402030221224D
:103F600021212221222205070704040605060E0E40
:103F70000D0D0E0E0D0D05070704040605061010A5
:103F80000F0F10100F0F0507070404060506121285
:103F900011111212111105070704040605061C1C55
:103FA00013131C1C131305070603040604051E1E29
:103FB0001D1D1E1E1D1D05070603040604052020E9
:103FC0001F1F20201F1F05070704040605062222C5
:103FD00021212222212100003F0006005B004F002A
:103FE00066006D007D0007007F006F0077007C0099
:103FF00039005E00790071004000000001000000FF
:10400000030040000C000000000000000000000061
:10401000526F73737A206B6172616B7465722100E9
:10402000050000000000000000C2010000050000C3
:104030000010000000000000D4000020000000007C
:08404000DCC0FF7F010000005D
:10404800006CDC0200800000809FD500010105079C
:10405800070304020302040605060D0E0E0E0D0DDD
:104068000D0D0E0E0E0E0D0D0101050707030402BE
:104078000302040605060F1010100F0F0F0F101083
:1040880010100F0F010105070703040203020406BD
:104098000506111212121111111112121212111118
:1040A8000101050707030402030204060506131CA1
:1040B8001C1C131313131C1C1C1C131300010507D1
:1040C800060203010302040604051D1E1E1E1D1D13
:1040D8001D1D1E1E1E1E1D1D0001050706020301D3
:1040E8000302040604051F2020201F1F1F1F202075
:1040F80020201F1F0101050707030402030204060D
:1041080005062122222221212121222222222121C7
:10411800D4000020000000000000000000000000A3
:104128000000000000000000000000000000000087
:104138000000000000000000000000000000000077
:104148000000000000000000000000000000000067
:104158000000000000000000000000000000000057
:104168000000000000000000000000000000000047
:0C4178000000000001010000DD0000005C
:0400000300000301F5
:00000001FF
