:100000000000022099030000C5030000C5030000A2
:10001000C5030000C5030000C5030000C5030000C0
:10002000C5030000C5030000C5030000C5030000B0
:10003000C5030000C4030000C503000081250000C3
:10004000C5030000C5030000AD350000C503000076
:10005000C5030000C5030000C5030000C503000080
:10006000C5030000C5030000C5030000C503000070
:10007000C5030000C5030000C5030000C503000060
:10008000C5030000C5030000C5030000C503000050
:1000900029370000C5030000C5030000C5030000A8
:1000A000C5030000C5030000C5030000C503000030
:1000B000C5030000C5030000C5030000C503000020
:1000C000C5030000C5030000C5030000C503000010
:1000D000C5030000C5030000C503000010B5054CB2
:1000E000237833B9044B13B10448AFF300800123E4
:1000F000237010BD3C01002000000000503A0000B9
:1001000008B5034B1BB103490348AFF3008008BD9A
:100110000000000040010020503A0000154B002B69
:1001200008BF134B9D46A3F5803A00218B460F462E
:100130001348144A121A03F09FFB0F4B002B00D0F8
:1001400098470E4B002B00D0984700200021040058
:100150000D000D48002802D00C48AFF3008003F0DA
:1001600067FB2000290002F02FFA03F04DFB00BFCF
:100170000000080000000220000000000000000055
:100180003C0100207C010020000000000000000075
:1001900080B483B000AF03463960FB71FB79002B5C
:1001A0000DD0FB79012B0AD0FB79022B07D0FB790C
:1001B000032B04D0FB79042B01D0FB79052B012202
:1001C0003B6802FA03F30749FA7918461346DB0045
:1001D00013449B000B441833186000BF0C37BD4616
:1001E00080BC70470060004080B582B000AF012144
:1001F000104800F055FF01210F4800F051FF002387
:100200007B600FE00D4A7B6812F833000B4A7B6875
:10021000DB00134459680023042201F073FB7B6860
:1002200001337B607B68012BECDD00231846083727
:10023000BD4680BD4081040000D20400103A000099
:1002400080B582B000AF78607B68002B10DB7B68E4
:10025000012B0DDC094A7B6812F83300074A7B68E2
:10026000DB0013445B681946FFF792FF002301E0AF
:100270004FF0FF3318460837BD4680BD103A0000E6
:1002800080B582B000AF3A4B5B6C394A43F40053FF
:100290005364384BD3F82031364A43F00403C2F894
:1002A0002031344BD3F82031324A23F44073C2F862
:1002B0002031304BD3F8B8302E4A23F47063C2F8A3
:1002C000B8302C4BD3F8B8302A4A43F48063C2F8D4
:1002D000B830274B10221A6200BF254BDB6A03F0AF
:1002E0002003002BF9D0244B1B68234A43F0010361
:1002F0001360214BDB68204A43F08073D3601F4BAF
:100300001F4A1A601F4800F02FFF034603F5D5234C
:1003100003F2FC437B607B68DB081B4AA2FB0323E0
:100320009B0A3B60194A3B68013B1361174B022251
:10033000C3F8F020154B4FF48072C3F804234FF03C
:100340006043134AC3F8B02F4FF06043114AC3F81B
:10035000802E4FF06043D3F8003E4FF0604243F0F0
:100360000103C2F8003E012318460837BD4680BD90
:1003700000800C4000600040F0ED00E0001000E064
:10038000FF13014006000E0017916502000004E013
:1003900055CEACC509000100064880470649074A0A
:1003A000074B9A42BEBF51F8040B42F8040BF8E722
:1003B000FFF7B4FE3D0500005C3A0000000000209D
:1003C0003C010020FEE700BF80B400AF034BDB6CB4
:1003D0001B0EDBB21846BD4680BC7047B081E00FF3
:1003E00080B582B000AF00F01FF87860074B5B6803
:1003F00003F00F037A6822FA03F37B60044A7B68F8
:1004000013607B6818460837BD4680BD00800C40ED
:100410000800002080B400AF024B1846BD4680BCE7
:10042000704700BF006CDC0280B582B000AF334B78
:10043000DB6A03F47053B3F5805F0AD0B3F5005F55
:1004400003D0B3F5006F08D00BE02D4B1B687B6029
:1004500047E04FF400437B6043E02A4B1B687B601E
:100460003FE0264BDB6803F4E063B3F5007F1BD06D
:10047000B3F5007F05D8002B24D0B3F5807F16D0CC
:100480002BE0B3F5806F09D0B3F5A06F03D0B3F5BF
:10049000407F06D021E01C4B7B6021E01B4B7B6042
:1004A0001EE01B4B7B601BE01A4B7B6018E0FFF7E4
:1004B0008BFF0346122B02D9174B7B6010E0174BC2
:1004C0007B600DE0FFF780FF0346122B02D9144B2F
:1004D0007B6005E0134B7B6002E000237B6000BF84
:1004E00000BF064B1B689B0B03F0070301337A68C0
:1004F000B2FBF3F318460837BD4680BD00800C40C0
:100500000400002000000020003FAB01406F4001CC
:10051000809FD500C0D8A70040B56400C0CF6A0056
:10052000804F120040420F0080B400AF024B1B68A6
:100530001846BD4680BC70470000002080B400AF64
:10054000034B044A9A6000BFBD4680BC704700BFA1
:1005500000ED00E00000000080B400AF4FF4004365
:100560001846BD4680BC704780B400AF4FF47A7324
:100570001846BD4680BC704780B400AF024B1B6874
:100580001846BD4680BC70470400002080B483B08C
:1005900000AF786000BF054B5A6E7B681340002B9C
:1005A000F9D100BF0C37BD4680BC704700A00840A1
:1005B00080B483B000AF7860054B9A6A7B68DB43F8
:1005C000034913408B6200BF0C37BD4680BC7047A7
:1005D00000A0084080B500AF00222849002001F0AB
:1005E000B1FB00222549012001F0ACFB0022234988
:1005F000022001F0A7FB00222049032001F0A2FB0A
:1006000000221E49042001F09DFB00221B49052009
:1006100001F098FB00221949062001F093FB00220B
:100620001649072001F08EFB0022FF21002001F077
:1006300047FC0022FF21012001F042FC0022FF21A3
:10064000022001F03DFC0022FF21032001F038FCD4
:100650000022FF21042001F033FC0022FF210520AD
:1006600001F02EFC0022FF21062001F029FC0022CF
:10067000FF21072001F024FC00BF80BD00F00FF037
:1006800080B582B000AF0346FB710121244800F021
:1006900007FD0321234800F015FF4021224800F008
:1006A000CDFB012001F05AF80121204800F0F8FCB0
:1006B0004FF0FF30FFF77CFF1D4801F0E1F9012109
:1006C000082001F03BFA0121102001F037FA012146
:1006D000802001F033FA01214FF4807001F02EFAEE
:1006E00001214FF4007001F029FAFB79002B0DD0A5
:1006F0004FF4402001F0A2FC4FF4803001F0FCF9EF
:100700000C4BDB6F0B4A43F00803D367FFF762FF24
:100710004FF0FF30FFF73AFF00BF0837BD4680BDFE
:10072000D0433E0002001E0080002A0000362C004C
:10073000203A000000800C4080B487B000AFF86021
:10074000B9607A60FB6803F10473DA00BB68134494
:100750009B007B617B697A681A6000BF1C37BD46CD
:1007600080BC704780B485B000AF786039607B682A
:1007700003F10473DA003B6813449B00FB60FB68E1
:100780001B6818461437BD4680BC704780B483B0E0
:1007900000AF786001227B6802FA03F318460C3739
:1007A000BD4680BC704780B485B000AF78607B6880
:1007B000002B03D07B68B3F5004F00BF7B68B3FA12
:1007C00083F3DBB2C3F11F03FB60FB6818461437E9
:1007D000BD4680BC7047000080B400AF034BDB6CAB
:1007E0001B0EDBB21846BD4680BC7047B081E00FDF
:1007F00080B400AF034BDB6C1B0CDBB21846BD466C
:1008000080BC7047B081E00F80B582B000AFFFF7C9
:10081000EFFF03464A2B04D0792B02D0482B23D07C
:1008200024E0154B1B699BB21B029BB203F47C5363
:10083000FB80114B9B691B091B0103F0F0039AB26B
:10084000FB881343FB800C4BDB691B0903F00F0390
:100850009AB2FB881343FB80FB88B3F5017F01D379
:10086000064B04E0064B02E0054B00E0002318466F
:100870000837BD4680BD00BFD0FF0FE000366E01D7
:100880000048E80180B584B000AF78600123FB60C8
:10089000FFF7BAFF02467B68934204D80023FB604F
:1008A0000023BB600BE0FFF7AFFF03465B007A68F5
:1008B0009A4202D80123BB6001E00223BB60FA68C0
:1008C0001E210848FFF738FF064B5B6823F480724F
:1008D000BB681B02034913434B6000BF1037BD4682
:1008E00080BD00BF00800C4080B582B000AF1E21EB
:1008F0000448FFF737FF78607B6818460837BD4625
:1009000080BD00BF00800C4080B582B000AF214B9D
:100910005B6903F4E063B3F5007F1CD0B3F5007F9F
:1009200005D8002B25D0B3F5807F1FD02AE0B3F582
:10093000C06F24D0B3F5E06F1ED0B3F5407F21D156
:10094000FFF74AFF0346122B02D9134B7B601CE0D2
:10095000124B7B6019E0FFF73FFF0346122B02D9D1
:100960000F4B7B6011E00F4B7B600EE00E4B7B600A
:100970000BE00E4B7B6008E00D4B7B6005E00D4B00
:100980007B6002E000237B6000BF7B68184608376D
:10099000BD4680BD00800C40804F120040420F00D9
:1009A00040B56400C0CF6A00C0D8A700809FD500C2
:1009B000406F4001003FAB0180B582B000AF0D48F1
:1009C00000F0D2FC0346FB70FB78072B05D0092B07
:1009D00007D1FFF729FD786006E0FFF795FF786003
:1009E00002E000237B6000BF7B6818460837BD46E5
:1009F00080BD00BF06000E0080B485B000AF7860F7
:100A00003960204B5B6803F00703FB60FB68012B38
:100A100001D9042B02D10023FB7202E00123FB72F7
:100A200000BF7B68184A934207D9FB7A002B01D09C
:100A3000052300E00423FB6016E07B68124A934222
:100A40000BD87B68114A934207D9FB7A002B01D05F
:100A5000032300E00123FB6006E0FB7A002B01D0BA
:100A6000022300E00023FB60064B5B6823F00702D3
:100A70000449FB6813434B6000BF1437BD4680BC7C
:100A8000704700BF00000C400048E8010024F4005B
:100A900080B582B000AF0E4BDB6B002B14BF01237F
:100AA0000023FB710A4B41F67132DA63FFF7B2FCA7
:100AB000034600211846FFF79FFFFB79002B02D069
:100AC000034B0022DA6300BF0837BD4680BD00BF7C
:100AD00000000C4080B584B000AF786039600C4BEA
:100AE000DB6B002B14BF01230023FB73084B41F683
:100AF0007132DA6339687868FFF77EFFFB7B002B81
:100B000002D0034B0022DA6300BF1037BD4680BD20
:100B100000000C4090B585B000AF78600023BB604A
:100B20007B68344A934203D0334A934200D000E0BA
:100B300000BF786800F018FC0346FB607B682D4A14
:100B4000934203D02C4A934206D00CE02B4B9B6A75
:100B500003F00303FB6006E0284B9B6A9B0803F04D
:100B60000303FB6000BFFB68032B39D801A252F8D6
:100B700023F000BFAB0B0000850B00008D0B0000C5
:100B8000950B0000FFF7E8FCB8602DE0FFF7F4FCE0
:100B9000B86029E0FFF724FC0446FFF7A5FE0346F2
:100BA000013324FA03F3BB601EE00023BB607B68C3
:100BB000104A934203D07B680F4A934213D10F4BE4
:100BC0009A6A7B680B498B4201D1102300E0142301
:100BD00022FA03F3002B06D0FFF7C6FCB86002E050
:100BE0000023BB6000E000BFBB6818461437BD4659
:100BF00090BD00BF02001E000300200000800C40DA
:100C000080B483B000AF7860094B5B6D03F00103E3
:100C1000002B07D100BF064B1A6D7B681340002BD9
:100C2000F9D100E000BF0C37BD4680BC704700BF63
:100C300000800C4080B582B000AF104800F094FBFB
:100C40000346FB70FB78032B07D0092B09D0022B3E
:100C50000BD1FFF791FC78600AE0FFF77DFC78602C
:100C600006E0FFF7E1FB786002E000237B6000BF55
:100C70007B6818460837BD4680BD00BF07232600A5
:100C800080B400AF00BFBD4680BC704780B400AFE9
:100C900000BFBD4680BC704790B585B000AF78609E
:100CA0007B681B0903F00F03BB60BB68013B0C2B87
:100CB00000F2AE8001A252F823F000BFF10C000058
:100CC000110E0000110E0000010D0000110E0000B9
:100CD000110E0000150D0000430D0000CF0D0000A7
:100CE000110E0000110E0000110E0000290D000071
:100CF0004B4B1B689B0B03F007030133FB608AE03F
:100D0000474B9B6803F00F03FB60F868FFF73EFD5D
:100D1000F86080E0424B5B6803F00F03FB60F8680B
:100D2000FFF734FDF86076E03D4B5B681B0A03F08B
:100D30000103FB60FB6801331846FFF727FDF860ED
:100D400069E07B68374A934218D0364A934203D809
:100D5000354A934207D036E0344A934219D0344A98
:100D6000934226D02FE02E4B9B6E1B0903F00F03FE
:100D7000FB60F868FFF70AFDF86027E0284B9B6EE0
:100D80001B0A03F00F03FB60F868FFF7FFFCF86035
:100D90001CE0234B9B6E1B0B03F003041020FFF79A
:100DA00002FD03462344FB60F868FFF7EFFCF860A0
:100DB0000CE01B4B9B6E03F00303FB60F868FFF72E
:100DC000E5FCF86002E00123FB6000BF23E07B68E4
:100DD000184A934203D0184A93420AD014E0104BA9
:100DE0001B6F03F00303FB60F868FFF7CFFCF860AC
:100DF0000DE00B4B1B6F1B0903F00303FB60F8684E
:100E0000FFF7C4FCF86002E00123FB6000BF02E0D2
:100E10000123FB6000BFFB6818461437BD4690BD38
:100E200000800C40802616008016120080002A00E8
:100E300080062E0090071A0090171C0090B585B010
:100E400000AF786039607B681B0903F00F03FB601B
:100E5000FB68013B0C2B00F20F8101A252F823F03A
:100E6000950E00007910000079100000C90E0000F6
:100E70007910000079100000110F0000630F0000CE
:100E80002510000079100000791000007910000092
:100E9000F10E00003B68002B02D03B68082B00BF1E
:100EA000FFF7F6FD774B1B6823F4E0323B68013B0C
:100EB0009B03744913430B60FFF792FAB86000215B
:100EC000B868FFF707FED8E03B68002B03D03B680B
:100ED000B3F5007F00BF3868FFF765FC3860694BE9
:100EE0009B6823F00F0267493B6813438B60C4E0A3
:100EF0003868FFF758FC0346013B3B60614B5B6879
:100F000023F480723B681B025E4913434B60B4E0DC
:100F10003B68002B03D03B68B3F5007F00BFFFF7B1
:100F2000B7FDFFF75DFA02463B68B2FBF3F31846E4
:100F3000FFF7A8FC3868FFF736FC3860514B5B6858
:100F400023F00F024F493B6813434B60FFF748FA09
:100F5000B8600021B868FFF7BDFDB868FFF792FCE4
:100F60008BE07B68484A93421ED0474A934203D89D
:100F7000464A934207D054E0454A934225D0454A19
:100F800093423ED04DE00420FFF73AFE3868FFF769
:100F90000AFC38603B4B9B6E23F0F0023B681B0160
:100FA000384913438B663CE00420FFF729FE38687C
:100FB000FFF7F9FB3860334B9B6E23F470623B689C
:100FC0001B02304913438B662BE03B680F2B02D981
:100FD0003B68802B00BF0420FFF712FE3868FFF744
:100FE000E2FB3860274B9B6E23F440541020FFF740
:100FF000DAFB02463B689B1A1B03224A2343936693
:101000000FE00420FFF7FCFD3868FFF7CCFB3860E9
:101010001C4B9B6E23F003021A493B6813438B66FB
:1010200000BF2AE07B681C4A934203D01B4A9342CC
:1010300010D020E04020FFF7E3FD3868FFF7B3FB56
:101040003860104B1B6F23F003020E493B681343BB
:101050000B6710E04020FFF7D3FD3868FFF7A3FBD4
:101060003860084B1B6F23F030023B681B010549B9
:1010700013430B6700BF00E000BF00BF1437BD463D
:1010800090BD00BF00800C40802616008016120024
:1010900080002A0080062E0090071A0090171C007E
:1010A00080B586B000AF78600B46FB7000233B61D3
:1010B0007B681B0A03F00F03013B092B44D801A2F4
:1010C00052F823F0FF10000005110000ED100000A1
:1010D00049110000491100000B110000151100001A
:1010E00049110000491100001F110000184B7B61DD
:1010F000FFF776F903461846FFF7C4FB12E0154BDD
:101100007B610FE0144B7B610CE0144B7B6101238E
:101110003B6107E0124B7B6110233B6102E0114B06
:101120007B6100BF7B681B0B03F01F03FB603B6907
:10113000002B02D03869FFF763FDFB781A46F96887
:101140007869FFF7F9FA00E000BF1837BD4680BDA7
:1011500040800C4008800C4044800C4058800C407B
:1011600060800C4078800C4090B585B000AF78600E
:101170007B6803F47813B3F5D01F00F0B480B3F5A7
:10118000D01F1AD8B3F5602F00F0C880B3F5602FD8
:1011900008D8B3F5003F45D0B3F5802F36D0002BEB
:1011A00030D0D2E0B3F5901F45D0B3F5B01F50D08A
:1011B000B3F5801F00F0B680C7E0B3F5181F00F04C
:1011C000B580B3F5181F0BD8B3F5F01F2ED0B3F5CB
:1011D000001F00F08380B3F5E01F00F09180B4E0C1
:1011E000B3F5301F56D0B3F5301F03D8B3F5281F21
:1011F0003DD0AAE0B3F5381F63D0B3F5781F00F0F7
:101200009980A2E0FFF710F9F860A1E0FFF70CF970
:10121000F860524B9B6803F00F03FA6822FA03F35D
:10122000FB6095E0FFF7DCF8F86091E04C48FFF7D1
:1012300071FCF8608CE04A48FFF76CFCF860474BA3
:101240009B6E1B0903F00F03FA6822FA03F3FB609D
:101250007EE04348FFF75EFCF860404B9B6E1B0A44
:1012600003F00F03FA6822FA03F3FB6070E03C48D6
:10127000FFF750FCF860394B9B6E1B0B03F0030427
:101280001020FFF790FA03462344FA6822FA03F38A
:10129000FB605DE03248FFF73DFCF8602F4B9B6E32
:1012A0001B0B03F00303FA6822FA03F3FB602B4BDA
:1012B000DB6F03F007030133FA68B2FBF3F3FB6063
:1012C00046E02748FFF726FCF860244B9B6E03F0AE
:1012D0000303FA6822FA03F3FB6039E02148FFF7C1
:1012E00019FCF86034E01F48FFF714FCF8601B4B52
:1012F0001B6F03F00303FA6822FA03F3FB6027E095
:101300001848FFF707FCF860144B1B6F1B0903F02C
:101310000303FA6822FA03F3FB6019E0FFF74CFBC2
:10132000F86015E0FFF7F0FAF86011E0FFF782FCD3
:10133000F8600DE0FFF754F804467868FFF7ACFC5E
:101340000346B4FBF3F3FB6002E00023FB6000BF45
:10135000FB6818461437BD4690BD00BF00800C40A6
:1013600002001E000300200080B485B000AF78604A
:101370000123FB737B6803F00F03BB60BB68013B79
:10138000062B00F2938001A252F823F0A91300006B
:10139000DF1300001B140000AD140000AD140000AA
:1013A0005714000079140000454BDB6A03F47053B6
:1013B000B3F5805F09D0B3F5005F03D0B3F5006FDC
:1013C00006D008E00223FB7308E00323FB7305E06B
:1013D0000423FB7302E00523FB7300BF69E0384B75
:1013E0009B6A03F00303022B06D0032B07D0012BCB
:1013F00008D10323FB730FE00223FB730CE00623E9
:10140000FB7309E02E4B9B6A03F48033002B02D060
:101410000A23FB7300E000BF4BE0294B9B6A03F0FB
:101420000C03082B06D00C2B07D0042B08D1032368
:10143000FB730FE00223FB730CE00623FB7309E050
:101440001F4B9B6A03F48013002B02D00A23FB730B
:1014500000E000BF2DE01A4B1B6803F08053002B07
:1014600003D0B3F1805F03D023E00723FB7302E0D6
:101470000923FB7300BF1CE0114BDB6A03F46033EC
:10148000B3F5803F08D0B3F5003F08D0B3F5004F67
:1014900008D10923FB7308E00223FB7305E0032353
:1014A000FB7302E00123FB7300BF02E00023FB7328
:1014B00000BFFB7B18461437BD4680BC704700BF99
:1014C00000800C4080B588B000AF78600B46FB70A0
:1014D0000323FB610323FB7600233B617B6803F05E
:1014E0000F03FB60FB68013B062B00F2288101A281
:1014F00052F823F011150000E7150000E715000071
:101500003F1700003F170000AD160000D71600007F
:10151000FB78023B082B00F2148101A252F823F061
:10152000451500004F150000591500009B150000DF
:101530004317000043170000431700004317000043
:10154000431700000423FB610023FB7631E00323F3
:10155000FB610123FB762CE00223FB610223FB7677
:10156000FFF752F9034601331846FFF78BF9FEF7F0
:10157000DBFF0246764B9A4206D9764B1B68754ACA
:1015800043F06003136014E0724B1B6823F06003A8
:10159000704A43F0200313600BE00123FB61032337
:1015A000FB76FFF731F9034601331846FFF76AF976
:1015B00000BFFB7E01220121184600F0EDF8FFF785
:1015C00067FAFFF75DFB634AFB695362FEF708FFAA
:1015D000B860B868FFF756F90021B868FFF77AFAE3
:1015E000FFF754FBB0E0FB78013B092B00F2AB8026
:1015F00001A252F823F000BF2116000027160000B8
:101600003716000047170000471700004716000074
:101610004717000047170000471700006316000037
:1016200000237B6122E001220121002000F0B4F8B8
:1016300002237B611AE001220121012000F0ACF8B5
:1016400001237B6112E0FEF7CBFEB860B868FFF7BC
:1016500019F9012204214048FFF76EF803237B614A
:1016600004E000237B6101233B6100BFFB68022B88
:101670000DD1384B9B6A23F4803323F003037A693E
:101680001A433B691B04334913438B625CE0314BC3
:101690009B6A23F4801323F00C037A6992001A43A7
:1016A0003B691B052B4913438B624DE0FB78072BED
:1016B00002D0092B07D047E0264B1B68254A23F0B0
:1016C0008053136006E0234B1B68224A43F080538B
:1016D000136000BF38E0FB78032B14D0092B22D015
:1016E000022B00D030E001220121002000F054F84C
:1016F000184B40225A6200BF164BDB6A03F480335A
:10170000002BF9D01AE001220121012000F044F859
:10171000104B60225A6200BF0E4BDB6A03F40033A9
:10172000002BF9D00AE00B4B20225A6200BF094B74
:10173000DB6A03F40043002BF9D000BF04E000BFD4
:1017400002E000BF00E000BF2037BD4680BD00BF03
:101750000048E80100800C4040800C4080B483B019
:1017600000AF78600B4B9B6D03F00803002B0CD18E
:101770007B6803F007037B60064BDB6F23F00702F7
:1017800004497B681343CB6700E000BF0C37BD46BC
:1017900080BC704700800C4080B586B000AF034627
:1017A000FB710B46BB7113467B71FB79042B48D848
:1017B00001A252F823F000BF05180000F71700003F
:1017C000DB170000CD170000E917000001233B6183
:1017D0000223FB6001237B611DE004233B6108239E
:1017E000FB6003237B6116E010233B612023FB6039
:1017F00005237B610FE040233B618023FB600723CF
:101800007B6108E04FF480733B614FF40073FB6031
:1018100009237B6100BFBB79002B0ED00B4A3B69CB
:1018200013627B79002B0DD000BF79690848FEF761
:1018300099FF0346002BF8D004E0044AFB681362CA
:1018400000E000BF1837BD4680BD00BF00800C40DF
:101850002C800C4080B483B000AF03463960FB712C
:10186000FB79002B0DD0FB79012B0AD0FB79022BE1
:1018700007D0FB79032B04D0FB79042B01D0FB7933
:10188000052B01223B6802FA03F30749FA7918464F
:101890001346DB0013449B000B441433186000BF55
:1018A0000C37BD4680BC70470060004080B483B0F8
:1018B00000AF03463960FB71FB79002B0DD0FB793B
:1018C000012B0AD0FB79022B07D0FB79032B04D024
:1018D000FB79042B01D0FB79052B01223B6802FA2E
:1018E00003F30749FA7918461346DB0013449B00BB
:1018F0000B441033186000BF0C37BD4680BC7047E6
:101900000060004080B584B000AFB9607B600346E2
:10191000FB731346BB73FB7B002B0DD0FB7B012BB2
:101920000AD0FB7B022B07D0FB7B032B04D0FB7B75
:10193000042B01D0FB7B052BBB7B002B0DD07B68E0
:10194000002B05D0FB7BB9681846FFF7AFFF04E01A
:10195000FB7BB9681846FFF77DFFBB68072B20D8D3
:101960002D49FA7B1346DB0013449B000B440433E0
:101970001A68BB689B000F2101FA03F3DB43134095
:10198000B97BBA68920001FA02F211462248FA7B4A
:1019900019431346DB0013449B00034404331960CE
:1019A00025E01D49FA7B1346DB0013449B000B44E2
:1019B00008331A68BB6803F18043083B9B000F2182
:1019C00001FA03F3DB4302EA0301BA7BBB6803F1CC
:1019D0008043083B9B0002FA03F30F48FA7B19434C
:1019E0001346DB0013449B00034408331960BB7BA0
:1019F000002B0DD17B68002B05D0FB7BB968184606
:101A0000FFF754FF04E0FB7BB9681846FFF722FF9D
:101A100000BF1037BD4680BD0060004080B483B079
:101A200000AF0346FB71FB79002B06D0084B1B6807
:101A3000074A43F00103136005E0054B1B68044AA5
:101A400023F00103136000BF0C37BD4680BC704714
:101A500000A0084080B487B000AFF860B9607A6039
:101A6000FB6803F10473DA00BB6813449B007B61DD
:101A70007B697A681A6000BF1C37BD4680BC70471E
:101A800080B584B000AF78601A4B5B68FB600020C3
:101A9000FFF7C4FFFB6823F4830323F01F03FB60FD
:101AA0007B685B68FA681343FB607B681B7A1A46A5
:101AB000FB681343FB607B685B7A1A46FB68134341
:101AC000FB607B68DB68FA681343FB607B681B8AFA
:101AD0001A46FB681343FB60064AFB6853607B6849
:101AE0001B78002B02D00120FFF798FF00BF1037B2
:101AF000BD4680BD00A0084080B485B000AF7860CE
:101B00000D4B5B68FB60FB6823F48033FB607B68F4
:101B1000002B08D0B3F5803F00D005E0FB6843F40C
:101B20008033FB6000E000BF034AFB68536000BFE6
:101B30001437BD4680BC704700A0084080B483B015
:101B400000AF03460A46FB8013467B717B79002B6E
:101B500006D0094B9A68FB88074913438B6006E05F
:101B6000054B9A68FB88DB43034913408B6000BF39
:101B70000C37BD4680BC704700A0084080B584B0DB
:101B800000AFF860B9601346FB71FB68072B00F2E9
:101B9000B38001A252F823F0B91B0000E11B000042
:101BA000091C0000311C0000591C0000811C0000B1
:101BB000A91C0000D11C0000BB681F2B06DCBB6801
:101BC000FA7919464F48FFF745FF96E0BB68203B7E
:101BD000BB60BB68FA7919464B48FFF73BFF8CE0C6
:101BE000BB681F2B06DCBB68FA7919464748FFF72C
:101BF00031FF82E0BB68203BBB60BB68FA791946C5
:101C00004348FFF727FF78E0BB681F2B06DCBB6863
:101C1000FA7919463F48FFF71DFF6EE0BB68203B8D
:101C2000BB60BB68FA7919463B48FFF713FF64E0D5
:101C3000BB681F2B06DCBB68FA7919463748FFF7EB
:101C400009FF5AE0BB68203BBB60BB68FA791946C4
:101C50003348FFF7FFFE50E0BB681F2B06DCBB6874
:101C6000FA7919462F48FFF7F5FE46E0BB68203B9E
:101C7000BB60BB68FA7919462B48FFF7EBFE3CE0E6
:101C8000BB681F2B06DCBB68FA7919462748FFF7AB
:101C9000E1FE32E0BB68203BBB60BB68FA791946C5
:101CA0002348FFF7D7FE28E0BB681F2B06DCBB6884
:101CB000FA7919461F48FFF7CDFE1EE0BB68203BAE
:101CC000BB60BB68FA7919461B48FFF7C3FE14E0F6
:101CD000BB681F2B06DCBB68FA7919461748FFF76B
:101CE000B9FE0AE0BB68203BBB60BB68FA791946C5
:101CF0001348FFF7AFFE00E000BF00BF1037BD463E
:101D000080BD00BF40A0084050A0084044A008404B
:101D100054A0084048A0084058A008404CA00840E3
:101D20005CA00840CCA00840B4A00840D0A0084067
:101D3000B8A00840D4A00840BCA00840D8A00840E3
:101D4000C0A0084080B487B000AFF860B9607A6086
:101D5000FB68072B00F2AC8001A252F823F000BF11
:101D6000811D0000A51D0000C91D0000ED1D000023
:101D7000111E0000391E0000611E0000891E0000B7
:101D80004E4B1B6C7B61BB68DB437A6913407B6104
:101D9000BA687B6813407A6913437B61474A7B6961
:101DA000136486E0454B5B6C7B61BB68DB437A69FF
:101DB00013407B61BA687B6813407A6913437B6187
:101DC0003E4A7B69536474E03C4B9B6C7B61BB680F
:101DD000DB437A6913407B61BA687B6813407A6998
:101DE00013437B61354A7B69936462E0334BDB6C60
:101DF0007B61BB68DB437A6913407B61BA687B68AF
:101E000013407A6913437B612C4A7B69D36450E0A9
:101E10002A4BD3F8CC307B61BB68DB437A69134033
:101E20007B61BA687B6813407A6913437B61234AFC
:101E30007B69C2F8CC303CE0204BD3F8D0307B61DA
:101E4000BB68DB437A6913407B61BA687B681340E7
:101E50007A6913437B61194A7B69C2F8D03028E064
:101E6000164BD3F8D4307B61BB68DB437A691340EF
:101E70007B61BA687B6813407A6913437B610F4AC0
:101E80007B69C2F8D43014E00C4BD3F8D8307B61B6
:101E9000BB68DB437A6913407B61BA687B68134097
:101EA0007A6913437B61054A7B69C2F8D83000E048
:101EB00000BF00BF1C37BD4680BC704700A0084073
:101EC00080B487B000AFF860B9607A60FB68072B18
:101ED00000F2AC8001A252F823F000BFFD1E00000A
:101EE000211F0000451F0000691F00008D1F00001A
:101EF000B51F0000DD1F0000052000004E4B1B6DCC
:101F00007B61BB68DB437A6913407B61BA687B689D
:101F100013407A6913437B61474A7B69136586E006
:101F2000454B5B6D7B61BB68DB437A6913407B612A
:101F3000BA687B6813407A6913437B613E4A7B69C8
:101F4000536574E03C4B9B6D7B61BB68DB437A69F6
:101F500013407B61BA687B6813407A6913437B61E5
:101F6000354A7B69936562E0334BDB6D7B61BB680F
:101F7000DB437A6913407B61BA687B6813407A69F6
:101F800013437B612C4A7B69D36550E02A4BD3F81D
:101F9000B4307B61BB68DB437A6913407B61BA680C
:101FA0007B6813407A6913437B61234A7B69C2F8DB
:101FB000B4303CE0204BD3F8B8307B61BB68DB43E6
:101FC0007A6913407B61BA687B6813407A6913436E
:101FD0007B61194A7B69C2F8B83028E0164BD3F808
:101FE000BC307B61BB68DB437A6913407B61BA68B4
:101FF0007B6813407A6913437B610F4A7B69C2F89F
:10200000BC3014E00C4BD3F8C0307B61BB68DB43C1
:102010007A6913407B61BA687B6813407A6913431D
:102020007B61054A7B69C2F8C03000E000BF00BF99
:102030001C37BD4680BC704700A0084080B483B008
:1020400000AF7860064B5B6823F4E01204497B68BC
:1020500013434B6000BF0C37BD4680BC704700BFC8
:1020600000A0084080B485B000AF78601A4B5B696F
:10207000DBB29B00DBB203F03C03FB73164B1B6926
:102080009B09DBB203F00303DAB2FB7B1343FB7360
:102090007B68FA7B9A70104B1B69DBB203F03F033D
:1020A000DAB27B685A700C4B9B691B09DBB21B01CF
:1020B000FB73094BDB691B09DBB203F00F03DAB2D8
:1020C000FB7B1343FB737B68FA7B1A7000BF1437EA
:1020D000BD4680BC704700BFD0FF0FE080B483B026
:1020E00000AF78607B680D4A93420BD07B680C4A46
:1020F000934207D07B680B4A934203D07B680A4A1D
:10210000934201D1012300E0002303F00103DBB27D
:1021100018460C37BD4680BC704700BF0000014028
:102120000004014000080140000C014080B584B06B
:1021300000AF786039607868FFF7D0FF0023FB605C
:102140003B681B7883F00103DBB2002B02D07B6875
:1021500002225A607B6800225A623B689B781A060A
:102160003B68DB781B041A433B689B799B021A434C
:102170003B68DB791B0213433A68127A13433A68CF
:102180005278002A01D0402200E0002213433A682E
:10219000527A002A01D0802200E0002213433A68DC
:1021A000927A002A01D0202200E0002213433A68EC
:1021B000D27A002A01D0102200E0002213433A68AC
:1021C000127B002A01D0082200E000221343FB60AA
:1021D0003B681B79002B02D04FF4005200E0002234
:1021E0003B685B79002B02D04FF0805300E0002366
:1021F0001343FA681343FB607B68FA681A603B6814
:102200001B78002B02D07B6801225A6000BF103778
:10221000BD4680BD80B483B000AF78600B46FB70D4
:10222000FB7843F01003DBB21A467B689A6500BF67
:102230000C37BD4680BC704780B586B000AFF860F3
:10224000B9607A60FB70BB68002B03D12448FEF7AD
:102250008BFFB860FB78202B0CD0202B02DC002BEE
:1022600005D03AE0402B08D0602B09D035E0102390
:102270007B6108E008237B6105E006237B6102E0C7
:1022800004237B6100BFBB689A007B69796801FB0E
:1022900003F35B0813443B617B697A6802FB03F339
:1022A0003A69B2FBF3F33B613B69043B3B613B6939
:1022B0009B013B613A690B4B13403B61FB681B6818
:1022C00023F06002FB681A60FB681A68FB781A4307
:1022D000FB681A60FB683A695A611837BD4680BDD1
:1022E00040810400C0FF1F0080B582B000AF78605D
:1022F00039607B68284A93420ED07B68274A934214
:102300000AD07B68264A934206D07B68254A9342CE
:1023100002D07B68244A934200BF786800F046F8F8
:102320003B689B7C002B05D07B681B6843F0804298
:102330007B681A603B68DB7C002B05D03B681B7D0B
:1023400019467868FFF766FF3B685B7B1A463B6877
:102350001B8A13433A68D2891A437B685A603B68E8
:1023600059683B689A683B681B7B7868FFF764FF95
:102370003B685B7D002B05D07B681B6843F4803293
:102380007B681A603B681B781A467B68DA6000BF7E
:102390000837BD4680BD00BF00C0004000C40040FB
:1023A00000C8004000E0004000E4004080B483B07A
:1023B00000AF78607B68244A93420ED07B68234A42
:1023C00093420AD07B68224A934206D07B68214A16
:1023D000934202D07B68204A934200BF7B6840F65C
:1023E000AA62DA607B6800221A607B6841F205020B
:1023F0005A607B6800229A607B6800225A617B6881
:102400000022DA647B6841F6F9729A647B680022E4
:102410005A657B680C4A934202D17B6800221A6598
:102420007B6800229A657B68084A934203D07B68E8
:10243000074A934202D17B680022DA6500BF0C375D
:10244000BD4680BC704700BF00C0004000C40040D3
:1024500000C8004000E0004000E4004080B483B0C9
:1024600000AF78600B46FB7000BF7B681B6903F010
:102470004003002BF9D0FA787B685A6300BF0C3711
:10248000BD4680BC7047000080B483B000AF0346F7
:102490003960FB7197F90730002B0ADB3B68DAB231
:1024A0000C4997F907305201D2B20B4483F800234C
:1024B0000AE03B68DAB20849FB7903F00F03043BFA
:1024C0005201D2B20B441A7600BF0C37BD4680BC15
:1024D000704700BF00E100E000ED00E080B582B091
:1024E00000AF78607B68013BB3F1807F01D30123AB
:1024F0000FE00A4A7B68013B536007214FF0FF3031
:10250000FFF7C2FF054B00229A60044B07221A60B6
:10251000002318460837BD4680BD00BF10E000E02C
:1025200080B400AF034BDB6C1B0EDBB21846BD461C
:1025300080BC7047B081E00F80B582B000AF0E4B19
:1025400001221A64FFF7ECFF0346FB713B1D18469E
:10255000FFF788FDFB790F2B0AD93B79022B07D9AE
:10256000064B1B6823F05003044A43F0100313602A
:1025700000BF0837BD4680BD00000C40C0800C4045
:1025800080B400AF044B1B680133034A136000BFE3
:10259000BD4680BC704700BF6C01002080B485B090
:1025A00000AF7860074B1B68FB6000BF054B1A68E3
:1025B000FB68D31A7A689A42F8D800BF1437BD4630
:1025C00080BC70476C010020F0B5A3B008AFFFF7E6
:1025D000B3FF01F0C1F800F0F7FF0020FEF750F85C
:1025E000FDF74EFE9748FEF7BFFD0246964BA3FB54
:1025F00002239B091846FFF771FF0346002B00D00A
:10260000FEE7FDF7E7FF4FF47A70FFF7C7FF07F12A
:102610002C066D4607F138040FCC0FC594E807006F
:1026200085E8070007F12C030ECB304600F096F941
:10263000102387F8573097F8573007F15802079260
:1026400006936D4607F13C040FCC0FC594E80300D8
:1026500085E8030007F12C030FCB00F067FEA7F815
:10266000580007F15803184600F020F94FF47A702B
:10267000FFF794FF754B1B78DBB2002B0CD0734B2C
:1026800000221A70724B1B68DBB219467148FFF7C3
:10269000E5FE714B01221A703E4607F1570307937E
:1026A0006D4607F138040FCC0FC594E8070085E8A4
:1026B000070007F12C030ECB304600F0B9F93C4679
:1026C00007F12C0604F1200C35462346186859689A
:1026D0009A68DB680FC5103410366445F4D1334670
:1026E00022461068516803C397F8573007F1580223
:1026F000079206936D4607F13C040FCC0FC594E892
:10270000030085E8030007F12C030FCB00F00EFE59
:10271000A7F8580007F15803184600F0C7F84FF41F
:102720007A70FFF73BFF3E4607F1570307936D466C
:1027300007F138040FCC0FC594E8070085E80700BF
:1027400007F12C030ECB304600F072F93C4607F13E
:102750002C0604F1200C35462346186859689A68FF
:10276000DB680FC5103410366445F4D13346224679
:102770001068516803C397F8573007F15802079261
:1027800006936D4607F13C040FCC0FC594E8030097
:1027900085E8030007F12C030FCB00F0C7FDA7F875
:1027A000580007F15803184600F080F84FF47A708B
:1027B000FFF7F4FE3E4607F1570307936D4607F116
:1027C00038040FCC0FC594E8070085E8070007F12F
:1027D0002C030ECB304600F02BF93C4607F12C06BB
:1027E00004F1200C35462346186859689A68DB685E
:1027F0000FC5103410366445F4D1334622461068B4
:10280000516803C397F8573007F1580207920693AF
:102810006D4607F13C040FCC0FC594E8030085E832
:10282000030007F12C030FCB00F080FDA7F8580040
:1028300007F15803184600F039F84FF47A70FFF7A3
:10284000ADFEDEE670000200D34D6210580100209C
:102850007401002000E000406801002080B483B0D3
:1028600000AF0346FB71FB79002B03D0054B01221F
:102870001A6602E0034B00221A6600BF0C37BD4601
:1028800080BC704700A0084080B483B000AF78607F
:1028900000BF054B5A6E7B681340002BF9D100BF77
:1028A0000C37BD4680BC704700A0084080B586B09C
:1028B00000AF78604FF0FF30FFF7E6FF0120FFF731
:1028C000CDFF0023BB753CE00023FB7533E0BA7DF0
:1028D000F97D21481346DB009B1A9B0003440B44FF
:1028E0000E331B783B61BA7DF97D1B481346DB0034
:1028F0009B1A9B0003440B441B78FB60BB7D5B0071
:102900007A6813441B881A46FB7D42FA03F303F0EE
:102910000103002B06D0FB68396901221846FFF736
:102920002DF905E0FB68396900221846FFF726F902
:10293000FB7D0133FB75FB7D0D2BC8D9BB7D0133BE
:10294000BB75BB7D062BBFD90020FFF787FF00BFFB
:102950001837BD4680BD00BF0C00002084B0F0B524
:1029600085B000AF786007F12C0080E80E000023EE
:10297000FB7308E0FB7B07F12802134400221A7165
:10298000FB7B0133FB73FB7B242BF3D9012387F8FB
:102990003B30012387F85130032387F8523001235D
:1029A00087F853307B6807F12C049C4604F1200E15
:1029B000654626460FCE28606960AA60EB60103439
:1029C0000CF1100C7445F3D16246234603CB106022
:1029D000516078681437BD46BDE8F04004B07047D8
:1029E00084B080B582B000AF07F1100C8CE80F0006
:1029F00000F04AFF01460D4B83FB0123DA10CB1791
:102A0000D21A1346DB0013449B00CA1A1346FB710B
:102A1000FB7907F11002D35C002BE9D1FB79184652
:102A20000837BD46BDE8804004B07047398EE338B2
:102A300084B0F0B58DB006AF786007F1340080E85F
:102A40000E006423BB7501237B7500233B750FE0EB
:102A50003B7D07F1300213441A7997F859309A42B6
:102A600003D13B7DFB7500237B753B7D01333B75BB
:102A70003B7D242BECD90023FB740DE0FB7C07F19C
:102A8000300213441A7997F859309A4201D9012338
:102A90007B75FB7C0133FB74FB7C242BEED97B7DA7
:102AA000002B30D0002387F85B300023BB7408E094
:102AB000BB7C07F13002134400221A71BB7C013346
:102AC000BB74BB7C242BF3D9002387F85930032334
:102AD00087F85A307B6807F134049C4604F1200ED5
:102AE000654626460FCE28606960AA60EB60103408
:102AF0000CF1100C7445F3D16246234603CB1060F1
:102B0000516000F00BBC01237B7497F85A30002B06
:102B100003D097F85A30012B47D1FB7D062B1DD9E6
:102B2000FB7D0E2B1AD8FB7D0F3307F130021344C7
:102B30001B79002B02D0002387F85B3097F85920CF
:102B4000FB7D0F330132D2B207F130010B441A7111
:102B5000FB7D0F33BB752523FB7525E0FB7D152B16
:102B60001DD9FB7D1D2B1AD8FB7D0F3B07F13002D1
:102B700013441B79002B02D0002387F85B3097F8B1
:102B80005920FB7D0F3B0132D2B207F130010B44DB
:102B90001A71FB7D0F3BBB752523FB7504E00123F8
:102BA0007B752523FB752CE32BE397F85A30022B1A
:102BB00055D1FB7D002B02D0FB7D062B0BD9FB7D75
:102BC0000F2B02D9FB7D152B05D9FB7D1E2B1DD9A3
:102BD000FB7D242B1AD8FB7D013B07F13002134407
:102BE0001B79002B02D0002387F85B3097F859201F
:102BF000FB7D013B0132D2B207F130010B441A7167
:102C0000FB7D013BBB752523FB75FAE2FB7D002BA9
:102C100005D0FB7D0F2B02D0FB7D1E2B1AD1FB7D37
:102C2000063307F1300213441B79002B02D0002336
:102C300087F85B3097F85920FB7D06330132D2B21A
:102C400007F130010B441A71FB7D0633BB75252358
:102C5000FB75D6E201237B752523FB75D1E297F83E
:102C60005A30032B52D1FB7D052B0BD9FB7D0E2B4C
:102C700002D9FB7D142B05D9FB7D1D2B1DD9FB7DB6
:102C8000232B1AD8FB7D013307F1300213441B7943
:102C9000002B02D0002387F85B3097F85920FB7D8A
:102CA00001330132D2B207F130010B441A71FB7DBE
:102CB0000133BB752523FB75A3E2FB7D062B05D0F5
:102CC000FB7D152B02D0FB7D242B1AD1FB7D063B0F
:102CD00007F1300213441B79002B02D0002387F840
:102CE0005B3097F85920FB7D063B0132D2B207F1E9
:102CF00030010B441A71FB7D063BBB752523FB7528
:102D00007FE201237B752523FB757AE297F85A3021
:102D1000042B4CD1FB7D072B02D9FB7D0E2B05D953
:102D2000FB7D162B1DD9FB7D1D2B1AD8FB7D083B87
:102D300007F1300213441B79002B02D0002387F8DF
:102D40005B3097F85920FB7D083B0132D2B207F186
:102D500030010B441A71FB7D083BBB752523FB75C5
:102D60004FE2FB7D072B02D0FB7D162B1AD1FB7D9A
:102D7000013B07F1300213441B79002B02D00023E2
:102D800087F85B3097F85920FB7D013B0132D2B2C6
:102D900007F130010B441A71FB7D013BBB75252304
:102DA000FB752EE201237B752523FB7529E297F83D
:102DB0005A30052B4CD1FB7D072B02D9FB7D0E2B06
:102DC00005D9FB7D162B1DD9FB7D1D2B1AD8FB7D4C
:102DD000073307F1300213441B79002B02D0002384
:102DE00087F85B3097F85920FB7D07330132D2B268
:102DF00007F130010B441A71FB7D0733BB752523A6
:102E0000FB75FEE1FB7D072B02D0FB7D162B1AD153
:102E1000FB7D0E3307F1300213441B79002B02D0E7
:102E2000002387F85B3097F85920FB7D0E33013281
:102E3000D2B207F130010B441A71FB7D0E33BB7522
:102E40002523FB75DDE101237B752523FB75D8E187
:102E500097F85A30062B4CD1FB7D062B02D9FB7D0F
:102E60000D2B05D9FB7D152B1DD9FB7D1C2B1AD8ED
:102E7000FB7D073B07F1300213441B79002B02D086
:102E8000002387F85B3097F85920FB7D073B013220
:102E9000D2B207F130010B441A71FB7D073BBB75C1
:102EA0002523FB75ADE1FB7D0E2B02D0FB7D1D2B99
:102EB0001AD1FB7D0E3B07F1300213441B79002B26
:102EC00002D0002387F85B3097F85920FB7D0E3B3A
:102ED0000132D2B207F130010B441A71FB7D0E3B77
:102EE000BB752523FB758CE101237B752523FB75C1
:102EF00087E197F85A30072B4CD1FB7D062B02D97E
:102F0000FB7D0D2B05D9FB7D152B1DD9FB7D1C2BC6
:102F10001AD8FB7D083307F1300213441B79002BCC
:102F200002D0002387F85B3097F85920FB7D0833E7
:102F30000132D2B207F130010B441A71FB7D083324
:102F4000BB752523FB755CE1FB7D0E2B02D0FB7D61
:102F50001D2B1AD1FB7D013307F1300213441B797D
:102F6000002B02D0002387F85B3097F85920FB7DB7
:102F700001330132D2B207F130010B441A71FB7DEB
:102F80000133BB752523FB753BE101237B752523AD
:102F9000FB7536E197F85A30082B49D1FB7D062B9B
:102FA00005D9FB7D0E2B1DD9FB7D152B1AD8FB7D7A
:102FB000083307F1300213441B79002B02D00023A1
:102FC00087F85B3097F85920FB7D08330132D2B285
:102FD00007F130010B441A71FB7D0833BB752523C3
:102FE000FB750EE1FB7D1D2B1DD9FB7D242B1AD813
:102FF000FB7D163B07F1300213441B79002B02D0F6
:10300000002387F85B3097F85920FB7D163B01328F
:10301000D2B207F130010B441A71FB7D163BBB7530
:103020002523FB75EDE001237B752523FB75E8E087
:1030300097F85A30092B49D1FB7D062B05D9FB7D2A
:103040000E2B1DD9FB7D152B1AD8FB7D073307F1FD
:10305000300213441B79002B02D0002387F85B3029
:1030600097F85920FB7D07330132D2B207F13001C6
:103070000B441A71FB7D0733BB752523FB75C0E03C
:10308000FB7D1D2B1DD9FB7D242B1AD8FB7D173B07
:1030900007F1300213441B79002B02D0002387F87C
:1030A0005B3097F85920FB7D173B0132D2B207F114
:1030B00030010B441A71FB7D173BBB752523FB7553
:1030C0009FE001237B752523FB759AE097F85A3022
:1030D0000A2B49D1FB7D0E2B02D9FB7D152B05D97F
:1030E000FB7D1D2B1DD9FB7D242B1AD8FB7D073BB7
:1030F00007F1300213441B79002B02D0002387F81C
:103100005B3097F85920FB7D073B0132D2B207F1C3
:1031100030010B441A71FB7D073BBB752523FB7502
:103120006FE0FB7D062B1AD8FB7D173307F13002C9
:1031300013441B79002B02D0002387F85B3097F8EB
:103140005920FB7D17330132D2B207F130010B4415
:103150001A71FB7D1733BB752523FB7551E00123E5
:103160007B752523FB754CE097F85A300B2B48D123
:10317000FB7D0E2B02D9FB7D152B05D9FB7D1D2B6D
:103180001DD9FB7D242B1AD8FB7D083B07F13002AB
:1031900013441B79002B02D0002387F85B3097F88B
:1031A0005920FB7D083B0132D2B207F130010B44BC
:1031B0001A71FB7D083BBB752523FB7521E0FB7D68
:1031C000062B1AD8FB7D163307F1300213441B7906
:1031D000002B02D0002387F85B3097F85920FB7D45
:1031E00016330132D2B207F130010B441A71FB7D64
:1031F0001633BB752523FB7503E001237B7525235F
:10320000FB757B7D002B2FD0002387F85B300023DC
:103210003B7408E03B7C07F13002134400221A7132
:103220003B7C01333B743B7C242BF3D9002387F890
:103230005930032387F85A307B6807F134049C46E1
:1032400004F1200E654626460FCE28606960AA600C
:10325000EB6010340CF1100C7445F3D16246234638
:1032600003CB1060516059E097F859300133DBB25D
:1032700087F85930FB6D1B78BA7D9A4222D0002323
:10328000FB7314E0FB7B07F1300213441B79002B26
:103290000AD0FB7B07F130021A441279013AD2B20C
:1032A00007F130010B441A71FB7B0133FB73FB7B8D
:1032B000242BE7D997F85930013BDBB287F8593016
:1032C00000237B747B7C002B11D06D4607F14404F6
:1032D0000FCC0FC594E8030085E8030007F1340321
:1032E0000FCBFFF77DFB03461A46FB6D1A707B6818
:1032F00007F134049C4604F1200E654626460FCEA5
:1033000028606960AA60EB6010340CF1100C744501
:10331000F3D16246234603CB1060516078681C37B6
:10332000BD46BDE8F04004B07047000084B080B4F2
:1033300083B000AF07F1100C8CE80F000023FB7185
:1033400008E0FB795B00FA6B134400221A80FB79DA
:103350000133FB71FB79062BF3D997F83830012242
:1033600007F11001CA540023BB71B1E0BB7907F12A
:103370001002D35C002B00F0A580BB79242B00F257
:10338000A38001A252F823F01D3400001D34000078
:103390001D3400001D3400001D3400001D340000E9
:1033A0001D3400002F3400002F3400002F340000A3
:1033B0002F3400002F3400002F3400002F34000081
:1033C00047340000573400005734000057340000E1
:1033D00057340000573400005734000057340000C1
:1033E00085340000853400008534000085340000F9
:1033F0008534000085340000853400009D340000D1
:10340000AD340000AD340000AD340000AD34000038
:10341000AD340000AD340000AD340000BB795B007A
:10342000FA6B1A44137843F0010313704DE0BB7933
:1034300003F10043073B5B00FA6B1A44137843F037
:103440002003137041E0FB6B03F10C02137843F08F
:103450000203137039E0BB7903F100430F3B5B00BB
:10346000FA6B1A44137843F040031370BB7903F1ED
:1034700000430F3B5B00FA6B1A44537843F004039C
:10348000537022E0BB7903F10043163B5B00FA6BFB
:103490001A44137843F01003137016E0FB6B03F12A
:1034A0000C02137843F0040313700EE0BB7903F1B0
:1034B00000431E3B5B00FA6B1A44137843F0080389
:1034C000137002E000BF00E000BFBB790133BB71A5
:1034D000BB79242B7FF64AAFFB6B1B8818460C3751
:1034E000BD4680BC04B0704780B483B000AF0346D3
:1034F000FB7197F90730002B0BDBFB7903F01F0200
:10350000064997F907305B09012000FA02F241F8F9
:10351000232000BF0C37BD4680BC704700E100E0AF
:1035200080B483B000AF78604FF6FF7318460C3755
:10353000BD4680BC704780B582B000AF786039600E
:103540007868FFF7EDFF7B683A685A6200BF08377A
:10355000BD4680BD80B483B000AF786039607B68C1
:103560003A689A6100BF0C37BD4680BC704780B492
:1035700083B000AF786039607B68DA683B681A43D3
:103580007B68DA6000BF0C37BD4680BC704780B5F1
:1035900082B000AF786039607868FFF7C1FF7B6860
:1035A0003A68DA6100BF0837BD4680BD80B500AF1C
:1035B0000020FCF745FE01210248FFF7CBFF00BFCA
:1035C00080BD00BF0000014080B584B000AF012184
:1035D0001E48FDF733FC01211D48FDF761FD3B4608
:1035E00000221A605A609A601A7301233B70082304
:1035F000BB703B4619461748FEF798FD0021154859
:10360000FFF799FF4DF29F511248FFF7C0FF0121CC
:103610001048FFF79FFF01210E48FFF7A8FF022087
:10362000FFF762FFFCF7E0FD0B4B5B681A460B4BA4
:103630001A60094B5B68094A12689B1A013B1A46DB
:10364000064B1A6000BF1037BD4680BD40810400A4
:103650000052040000000140001000E07001002052
:1036600080B483B000AF0346FB7197F90730002B9D
:103670000BDBFB7903F01F02064997F907305B0962
:10368000012000FA02F241F8232000BF0C37BD46AA
:1036900080BC704700E100E080B483B000AF034617
:1036A000FB7197F90730002B0CDBFB7903F01F024D
:1036B000074997F907305B09012000FA02F26033ED
:1036C00041F8232000BF0C37BD4680BC704700BFC7
:1036D00000E100E080B483B000AF786039607B68BF
:1036E0003A689A6400BF0C37BD4680BC704780B40E
:1036F00083B000AF786039607B68DA6C3B681A434E
:103700007B68DA6400BF0C37BD4680BC704780B46C
:1037100083B000AF78607B68DB69DBB218460C379A
:10372000BD4680BC7047000080B500AF0748FFF77A
:10373000EEFF03461A46064B1A60064B01221A702A
:1037400004210248FFF7C6FF00BF80BD00E0004033
:103750007401002058010020B0B586B000AF264BA0
:103760005B6C254A43F40053536401230422072170
:103770000520FEF7C7F801212048FDF791FC204BFA
:103780003C461D460FCD0FC495E8030084E80300B6
:103790003B4619461B48FEF7A7FD012304220021E2
:1037A0000420FEF7AFF80023012201210420FEF7D8
:1037B000A9F8144B5B6D134A43F480735365114BA6
:1037C0005B6D104A43F0030353652B210D48FEF750
:1037D00045FE04210B48FFF77DFF04210948FFF750
:1037E00086FF1420FFF758FF1420FFF739FF00BFB2
:1037F0001837BD46B0BD00BF00800C400032040049
:10380000343A000000E0004008B5074B044613B10D
:103810000021AFF30080054B1868836A03B1984715
:10382000204600F0E7F800BF000000004C3A00001E
:1038300070B500250C4E0D4CA41BA410A54209D157
:1038400000F0DAF800250A4E0A4CA41BA410A54289
:1038500005D170BD56F8253098470135EEE756F88A
:10386000253098470135F2E734010020340100206B
:10387000340100203801002003460244934200D165
:10388000704703F8011BF9E738B5134B1C68A36BAD
:103890007BB9182000F02CF8104A114BA063C0E946
:1038A0000023104B012283600B2383810023C0E996
:1038B0000423A16B0C480A694B6950430B4C04FB71
:1038C0000300A2FB04230344541C43F10005C1E997
:1038D000044525F0004038BDD00000200E33CDABAC
:1038E00034126DE6ECDE05002DF451582D7F954C19
:1038F000024B0146186800F003B800BFD00000205A
:1039000070B5CD1C25F0030508350C2D38BF0C25EE
:10391000002D064601DBA94203D90C2333600020A9
:1039200070BD00F057F8214A1468214691B9204C27
:1039300023681BB9304600F03DF820602946304628
:1039400000F038F8431C24D10C233046336000F0DB
:1039500042F8E4E70B685B1B18D40B2B0FD90B6004
:10396000CC18CD50304600F036F804F10B00231D82
:1039700020F00700C31AD3D05A42E250D0E74B6878
:103980008C4216BF636013600C46EBE70C46496837
:10399000CCE7C41C24F00304A04205D0211A304611
:1039A00000F008F80130CFD02560DBE75C01002093
:1039B0006001002038B50023054C05460846236009
:1039C00000F00AF8431C02D1236803B12B6038BD14
:1039D0007801002070477047044A05491368002B9E
:1039E00008BF0B4618441060184670476401002059
:1039F00080010020FEE700BFF8B500BFF8BC08BC9E
:103A00009E467047F8B500BFF8BC08BC9E4670479C
:103A10000400000002000000040000000300000099
:103A200001000000030040000C0000000000000046
:103A300000000000050000000000000000C20100BE
:103A4000000500000010000000000000D40000206D
:043A50000000000072
:083A5400C8C6FF7F010000005D
:103A5C00006CDC0200800000809FD500010105078E
:103A6C00070304020302040605060D0E0E0E0D0DCF
:103A7C000D0D0E0E0E0E0D0D0101050707030402B0
:103A8C000302040605060F1010100F0F0F0F101075
:103A9C0010100F0F010105070703040203020406AF
:103AAC00050611121212111111111212121211110A
:103ABC000101050707030402030204060506131C93
:103ACC001C1C131313131C1C1C1C131300010507C3
:103ADC00060203010302040604051D1E1E1E1D1D05
:103AEC001D1D1E1E1E1E1D1D0001050706020301C5
:103AFC000302040604051F2020201F1F1F1F202067
:103B0C0020201F1F010105070703040203020406FE
:103B1C0005062122222221212121222222222121B9
:103B2C00D400002000000000000000000000000095
:103B3C000000000000000000000000000000000079
:103B4C000000000000000000000000000000000069
:103B5C000000000000000000000000000000000059
:103B6C000000000000000000000000000000000049
:103B7C000000000000000000000000000000000039
:0C3B8C000000000001010000DD0000004E
:04000003000003995D
:00000001FF
